{
	"Staking.sol": {
		"Staking": {
			"abi": [
				{
					"inputs": [
						{
							"internalType": "contract IERC20",
							"name": "_token",
							"type": "address"
						}
					],
					"stateMutability": "nonpayable",
					"type": "constructor"
				},
				{
					"inputs": [],
					"name": "claimRewards",
					"outputs": [],
					"stateMutability": "nonpayable",
					"type": "function"
				},
				{
					"inputs": [],
					"name": "maxRewardRate",
					"outputs": [
						{
							"internalType": "uint256",
							"name": "",
							"type": "uint256"
						}
					],
					"stateMutability": "view",
					"type": "function"
				},
				{
					"inputs": [],
					"name": "minRewardRate",
					"outputs": [
						{
							"internalType": "uint256",
							"name": "",
							"type": "uint256"
						}
					],
					"stateMutability": "view",
					"type": "function"
				},
				{
					"inputs": [
						{
							"internalType": "address",
							"name": "",
							"type": "address"
						}
					],
					"name": "rewardBalance",
					"outputs": [
						{
							"internalType": "uint256",
							"name": "",
							"type": "uint256"
						}
					],
					"stateMutability": "view",
					"type": "function"
				},
				{
					"inputs": [],
					"name": "rewardRate",
					"outputs": [
						{
							"internalType": "uint256",
							"name": "",
							"type": "uint256"
						}
					],
					"stateMutability": "view",
					"type": "function"
				},
				{
					"inputs": [
						{
							"internalType": "uint256",
							"name": "_amount",
							"type": "uint256"
						}
					],
					"name": "stake",
					"outputs": [],
					"stateMutability": "nonpayable",
					"type": "function"
				},
				{
					"inputs": [
						{
							"internalType": "address",
							"name": "",
							"type": "address"
						}
					],
					"name": "stakingBalance",
					"outputs": [
						{
							"internalType": "uint256",
							"name": "",
							"type": "uint256"
						}
					],
					"stateMutability": "view",
					"type": "function"
				},
				{
					"inputs": [],
					"name": "token",
					"outputs": [
						{
							"internalType": "contract IERC20",
							"name": "",
							"type": "address"
						}
					],
					"stateMutability": "view",
					"type": "function"
				},
				{
					"inputs": [
						{
							"internalType": "uint256",
							"name": "_amount",
							"type": "uint256"
						}
					],
					"name": "withdraw",
					"outputs": [],
					"stateMutability": "nonpayable",
					"type": "function"
				}
			],
			"devdoc": {
				"kind": "dev",
				"methods": {},
				"version": 1
			},
			"evm": {
				"assembly": "    /* \"Staking.sol\":120:2225  contract Staking {... */\n  mstore(0x40, 0x80)\n    /* \"Staking.sol\":312:313  2 */\n  0x02\n    /* \"Staking.sol\":281:313  uint256 public minRewardRate = 2 */\n  0x03\n  sstore\n    /* \"Staking.sol\":366:368  10 */\n  0x0a\n    /* \"Staking.sol\":335:368  uint256 public maxRewardRate = 10 */\n  0x04\n  sstore\n    /* \"Staking.sol\":455:515  constructor(IERC20 _token) {... */\n  callvalue\n  dup1\n  iszero\n  tag_1\n  jumpi\n  0x00\n  dup1\n  revert\ntag_1:\n  pop\n  mload(0x40)\n  sub(codesize, bytecodeSize)\n  dup1\n  bytecodeSize\n  dup4\n  codecopy\n  dup2\n  dup2\n  add\n  0x40\n  mstore\n  dup2\n  add\n  swap1\n  tag_2\n  swap2\n  swap1\n  tag_3\n  jump\t// in\ntag_2:\n    /* \"Staking.sol\":501:507  _token */\n  dup1\n    /* \"Staking.sol\":493:498  token */\n  0x00\n  dup1\n    /* \"Staking.sol\":493:507  token = _token */\n  0x0100\n  exp\n  dup2\n  sload\n  dup2\n  0xffffffffffffffffffffffffffffffffffffffff\n  mul\n  not\n  and\n  swap1\n  dup4\n  0xffffffffffffffffffffffffffffffffffffffff\n  and\n  mul\n  or\n  swap1\n  sstore\n  pop\n    /* \"Staking.sol\":455:515  constructor(IERC20 _token) {... */\n  pop\n    /* \"Staking.sol\":120:2225  contract Staking {... */\n  jump(tag_6)\n    /* \"#utility.yul\":88:205   */\ntag_8:\n    /* \"#utility.yul\":197:198   */\n  0x00\n    /* \"#utility.yul\":194:195   */\n  dup1\n    /* \"#utility.yul\":187:199   */\n  revert\n    /* \"#utility.yul\":334:460   */\ntag_10:\n    /* \"#utility.yul\":371:378   */\n  0x00\n    /* \"#utility.yul\":411:453   */\n  0xffffffffffffffffffffffffffffffffffffffff\n    /* \"#utility.yul\":404:409   */\n  dup3\n    /* \"#utility.yul\":400:454   */\n  and\n    /* \"#utility.yul\":389:454   */\n  swap1\n  pop\n    /* \"#utility.yul\":334:460   */\n  swap2\n  swap1\n  pop\n  jump\t// out\n    /* \"#utility.yul\":466:562   */\ntag_11:\n    /* \"#utility.yul\":503:510   */\n  0x00\n    /* \"#utility.yul\":532:556   */\n  tag_21\n    /* \"#utility.yul\":550:555   */\n  dup3\n    /* \"#utility.yul\":532:556   */\n  tag_10\n  jump\t// in\ntag_21:\n    /* \"#utility.yul\":521:556   */\n  swap1\n  pop\n    /* \"#utility.yul\":466:562   */\n  swap2\n  swap1\n  pop\n  jump\t// out\n    /* \"#utility.yul\":568:677   */\ntag_12:\n    /* \"#utility.yul\":618:625   */\n  0x00\n    /* \"#utility.yul\":647:671   */\n  tag_23\n    /* \"#utility.yul\":665:670   */\n  dup3\n    /* \"#utility.yul\":647:671   */\n  tag_11\n  jump\t// in\ntag_23:\n    /* \"#utility.yul\":636:671   */\n  swap1\n  pop\n    /* \"#utility.yul\":568:677   */\n  swap2\n  swap1\n  pop\n  jump\t// out\n    /* \"#utility.yul\":683:831   */\ntag_13:\n    /* \"#utility.yul\":769:806   */\n  tag_25\n    /* \"#utility.yul\":800:805   */\n  dup2\n    /* \"#utility.yul\":769:806   */\n  tag_12\n  jump\t// in\ntag_25:\n    /* \"#utility.yul\":762:767   */\n  dup2\n    /* \"#utility.yul\":759:807   */\n  eq\n    /* \"#utility.yul\":749:825   */\n  tag_26\n  jumpi\n    /* \"#utility.yul\":821:822   */\n  0x00\n    /* \"#utility.yul\":818:819   */\n  dup1\n    /* \"#utility.yul\":811:823   */\n  revert\n    /* \"#utility.yul\":749:825   */\ntag_26:\n    /* \"#utility.yul\":683:831   */\n  pop\n  jump\t// out\n    /* \"#utility.yul\":837:1006   */\ntag_14:\n    /* \"#utility.yul\":907:912   */\n  0x00\n    /* \"#utility.yul\":938:944   */\n  dup2\n    /* \"#utility.yul\":932:945   */\n  mload\n    /* \"#utility.yul\":923:945   */\n  swap1\n  pop\n    /* \"#utility.yul\":954:1000   */\n  tag_28\n    /* \"#utility.yul\":994:999   */\n  dup2\n    /* \"#utility.yul\":954:1000   */\n  tag_13\n  jump\t// in\ntag_28:\n    /* \"#utility.yul\":837:1006   */\n  swap3\n  swap2\n  pop\n  pop\n  jump\t// out\n    /* \"#utility.yul\":1012:1389   */\ntag_3:\n    /* \"#utility.yul\":1095:1101   */\n  0x00\n    /* \"#utility.yul\":1144:1146   */\n  0x20\n    /* \"#utility.yul\":1132:1141   */\n  dup3\n    /* \"#utility.yul\":1123:1130   */\n  dup5\n    /* \"#utility.yul\":1119:1142   */\n  sub\n    /* \"#utility.yul\":1115:1147   */\n  slt\n    /* \"#utility.yul\":1112:1231   */\n  iszero\n  tag_30\n  jumpi\n    /* \"#utility.yul\":1150:1229   */\n  tag_31\n  tag_8\n  jump\t// in\ntag_31:\n    /* \"#utility.yul\":1112:1231   */\ntag_30:\n    /* \"#utility.yul\":1270:1271   */\n  0x00\n    /* \"#utility.yul\":1295:1372   */\n  tag_32\n    /* \"#utility.yul\":1364:1371   */\n  dup5\n    /* \"#utility.yul\":1355:1361   */\n  dup3\n    /* \"#utility.yul\":1344:1353   */\n  dup6\n    /* \"#utility.yul\":1340:1362   */\n  add\n    /* \"#utility.yul\":1295:1372   */\n  tag_14\n  jump\t// in\ntag_32:\n    /* \"#utility.yul\":1285:1372   */\n  swap2\n  pop\n    /* \"#utility.yul\":1241:1382   */\n  pop\n    /* \"#utility.yul\":1012:1389   */\n  swap3\n  swap2\n  pop\n  pop\n  jump\t// out\n    /* \"Staking.sol\":120:2225  contract Staking {... */\ntag_6:\n  dataSize(sub_0)\n  dup1\n  dataOffset(sub_0)\n  0x00\n  codecopy\n  0x00\n  return\nstop\n\nsub_0: assembly {\n        /* \"Staking.sol\":120:2225  contract Staking {... */\n      mstore(0x40, 0x80)\n      callvalue\n      dup1\n      iszero\n      tag_1\n      jumpi\n      0x00\n      dup1\n      revert\n    tag_1:\n      pop\n      jumpi(tag_2, lt(calldatasize, 0x04))\n      shr(0xe0, calldataload(0x00))\n      dup1\n      0x45bc78ab\n      gt\n      tag_12\n      jumpi\n      dup1\n      0x45bc78ab\n      eq\n      tag_7\n      jumpi\n      dup1\n      0x67b40cf7\n      eq\n      tag_8\n      jumpi\n      dup1\n      0x7b0a47ee\n      eq\n      tag_9\n      jumpi\n      dup1\n      0xa694fc3a\n      eq\n      tag_10\n      jumpi\n      dup1\n      0xfc0c546a\n      eq\n      tag_11\n      jumpi\n      jump(tag_2)\n    tag_12:\n      dup1\n      0x0d40ffc7\n      eq\n      tag_3\n      jumpi\n      dup1\n      0x2e1a7d4d\n      eq\n      tag_4\n      jumpi\n      dup1\n      0x372500ab\n      eq\n      tag_5\n      jumpi\n      dup1\n      0x3dc78f8d\n      eq\n      tag_6\n      jumpi\n    tag_2:\n      0x00\n      dup1\n      revert\n        /* \"Staking.sol\":335:368  uint256 public maxRewardRate = 10 */\n    tag_3:\n      tag_13\n      tag_14\n      jump\t// in\n    tag_13:\n      mload(0x40)\n      tag_15\n      swap2\n      swap1\n      tag_16\n      jump\t// in\n    tag_15:\n      mload(0x40)\n      dup1\n      swap2\n      sub\n      swap1\n      return\n        /* \"Staking.sol\":842:1153  function withdraw(uint256 _amount) public {... */\n    tag_4:\n      tag_17\n      0x04\n      dup1\n      calldatasize\n      sub\n      dup2\n      add\n      swap1\n      tag_18\n      swap2\n      swap1\n      tag_19\n      jump\t// in\n    tag_18:\n      tag_20\n      jump\t// in\n    tag_17:\n      stop\n        /* \"Staking.sol\":1161:1403  function claimRewards() public {... */\n    tag_5:\n      tag_21\n      tag_22\n      jump\t// in\n    tag_21:\n      stop\n        /* \"Staking.sol\":281:313  uint256 public minRewardRate = 2 */\n    tag_6:\n      tag_23\n      tag_24\n      jump\t// in\n    tag_23:\n      mload(0x40)\n      tag_25\n      swap2\n      swap1\n      tag_16\n      jump\t// in\n    tag_25:\n      mload(0x40)\n      dup1\n      swap2\n      sub\n      swap1\n      return\n        /* \"Staking.sol\":170:219  mapping(address => uint256) public stakingBalance */\n    tag_7:\n      tag_26\n      0x04\n      dup1\n      calldatasize\n      sub\n      dup2\n      add\n      swap1\n      tag_27\n      swap2\n      swap1\n      tag_28\n      jump\t// in\n    tag_27:\n      tag_29\n      jump\t// in\n    tag_26:\n      mload(0x40)\n      tag_30\n      swap2\n      swap1\n      tag_16\n      jump\t// in\n    tag_30:\n      mload(0x40)\n      dup1\n      swap2\n      sub\n      swap1\n      return\n        /* \"Staking.sol\":226:274  mapping(address => uint256) public rewardBalance */\n    tag_8:\n      tag_31\n      0x04\n      dup1\n      calldatasize\n      sub\n      dup2\n      add\n      swap1\n      tag_32\n      swap2\n      swap1\n      tag_28\n      jump\t// in\n    tag_32:\n      tag_33\n      jump\t// in\n    tag_31:\n      mload(0x40)\n      tag_34\n      swap2\n      swap1\n      tag_16\n      jump\t// in\n    tag_34:\n      mload(0x40)\n      dup1\n      swap2\n      sub\n      swap1\n      return\n        /* \"Staking.sol\":390:415  uint256 public rewardRate */\n    tag_9:\n      tag_35\n      tag_36\n      jump\t// in\n    tag_35:\n      mload(0x40)\n      tag_37\n      swap2\n      swap1\n      tag_16\n      jump\t// in\n    tag_37:\n      mload(0x40)\n      dup1\n      swap2\n      sub\n      swap1\n      return\n        /* \"Staking.sol\":523:834  function stake(uint256 _amount) public {... */\n    tag_10:\n      tag_38\n      0x04\n      dup1\n      calldatasize\n      sub\n      dup2\n      add\n      swap1\n      tag_39\n      swap2\n      swap1\n      tag_19\n      jump\t// in\n    tag_39:\n      tag_40\n      jump\t// in\n    tag_38:\n      stop\n        /* \"Staking.sol\":144:163  IERC20 public token */\n    tag_11:\n      tag_41\n      tag_42\n      jump\t// in\n    tag_41:\n      mload(0x40)\n      tag_43\n      swap2\n      swap1\n      tag_44\n      jump\t// in\n    tag_43:\n      mload(0x40)\n      dup1\n      swap2\n      sub\n      swap1\n      return\n        /* \"Staking.sol\":335:368  uint256 public maxRewardRate = 10 */\n    tag_14:\n      sload(0x04)\n      dup2\n      jump\t// out\n        /* \"Staking.sol\":842:1153  function withdraw(uint256 _amount) public {... */\n    tag_20:\n        /* \"Staking.sol\":933:940  _amount */\n      dup1\n        /* \"Staking.sol\":903:917  stakingBalance */\n      0x01\n        /* \"Staking.sol\":903:929  stakingBalance[msg.sender] */\n      0x00\n        /* \"Staking.sol\":918:928  msg.sender */\n      caller\n        /* \"Staking.sol\":903:929  stakingBalance[msg.sender] */\n      0xffffffffffffffffffffffffffffffffffffffff\n      and\n      0xffffffffffffffffffffffffffffffffffffffff\n      and\n      dup2\n      mstore\n      0x20\n      add\n      swap1\n      dup2\n      mstore\n      0x20\n      add\n      0x00\n      keccak256\n      sload\n        /* \"Staking.sol\":903:940  stakingBalance[msg.sender] >= _amount */\n      lt\n      iszero\n        /* \"Staking.sol\":895:963  require(stakingBalance[msg.sender] >= _amount, \"Saldo insuficiente\") */\n      tag_46\n      jumpi\n      mload(0x40)\n      0x08c379a000000000000000000000000000000000000000000000000000000000\n      dup2\n      mstore\n      0x04\n      add\n      tag_47\n      swap1\n      tag_48\n      jump\t// in\n    tag_47:\n      mload(0x40)\n      dup1\n      swap2\n      sub\n      swap1\n      revert\n    tag_46:\n        /* \"Staking.sol\":1004:1011  _amount */\n      dup1\n        /* \"Staking.sol\":974:988  stakingBalance */\n      0x01\n        /* \"Staking.sol\":974:1000  stakingBalance[msg.sender] */\n      0x00\n        /* \"Staking.sol\":989:999  msg.sender */\n      caller\n        /* \"Staking.sol\":974:1000  stakingBalance[msg.sender] */\n      0xffffffffffffffffffffffffffffffffffffffff\n      and\n      0xffffffffffffffffffffffffffffffffffffffff\n      and\n      dup2\n      mstore\n      0x20\n      add\n      swap1\n      dup2\n      mstore\n      0x20\n      add\n      0x00\n      keccak256\n      0x00\n        /* \"Staking.sol\":974:1011  stakingBalance[msg.sender] -= _amount */\n      dup3\n      dup3\n      sload\n      tag_49\n      swap2\n      swap1\n      tag_50\n      jump\t// in\n    tag_49:\n      swap3\n      pop\n      pop\n      dup2\n      swap1\n      sstore\n      pop\n        /* \"Staking.sol\":1022:1027  token */\n      0x00\n      dup1\n      sload\n      swap1\n      0x0100\n      exp\n      swap1\n      div\n      0xffffffffffffffffffffffffffffffffffffffff\n      and\n        /* \"Staking.sol\":1022:1036  token.transfer */\n      0xffffffffffffffffffffffffffffffffffffffff\n      and\n      0xa9059cbb\n        /* \"Staking.sol\":1037:1047  msg.sender */\n      caller\n        /* \"Staking.sol\":1049:1056  _amount */\n      dup4\n        /* \"Staking.sol\":1022:1057  token.transfer(msg.sender, _amount) */\n      mload(0x40)\n      dup4\n      0xffffffff\n      and\n      0xe0\n      shl\n      dup2\n      mstore\n      0x04\n      add\n      tag_51\n      swap3\n      swap2\n      swap1\n      tag_52\n      jump\t// in\n    tag_51:\n      0x20\n      mload(0x40)\n      dup1\n      dup4\n      sub\n      dup2\n      0x00\n      dup8\n      gas\n      call\n      iszero\n      dup1\n      iszero\n      tag_54\n      jumpi\n      returndatasize\n      0x00\n      dup1\n      returndatacopy\n      revert(0x00, returndatasize)\n    tag_54:\n      pop\n      pop\n      pop\n      pop\n      mload(0x40)\n      returndatasize\n      not(0x1f)\n      0x1f\n      dup3\n      add\n      and\n      dup3\n      add\n      dup1\n      0x40\n      mstore\n      pop\n      dup2\n      add\n      swap1\n      tag_55\n      swap2\n      swap1\n      tag_56\n      jump\t// in\n    tag_55:\n      pop\n        /* \"Staking.sol\":1131:1145  claimRewards() */\n      tag_57\n        /* \"Staking.sol\":1131:1143  claimRewards */\n      tag_22\n        /* \"Staking.sol\":1131:1145  claimRewards() */\n      jump\t// in\n    tag_57:\n        /* \"Staking.sol\":842:1153  function withdraw(uint256 _amount) public {... */\n      pop\n      jump\t// out\n        /* \"Staking.sol\":1161:1403  function claimRewards() public {... */\n    tag_22:\n        /* \"Staking.sol\":1203:1217  uint256 reward */\n      0x00\n        /* \"Staking.sol\":1220:1248  calculateRewards(msg.sender) */\n      tag_59\n        /* \"Staking.sol\":1237:1247  msg.sender */\n      caller\n        /* \"Staking.sol\":1220:1236  calculateRewards */\n      tag_60\n        /* \"Staking.sol\":1220:1248  calculateRewards(msg.sender) */\n      jump\t// in\n    tag_59:\n        /* \"Staking.sol\":1203:1248  uint256 reward = calculateRewards(msg.sender) */\n      swap1\n      pop\n        /* \"Staking.sol\":1287:1288  0 */\n      0x00\n        /* \"Staking.sol\":1259:1272  rewardBalance */\n      0x02\n        /* \"Staking.sol\":1259:1284  rewardBalance[msg.sender] */\n      0x00\n        /* \"Staking.sol\":1273:1283  msg.sender */\n      caller\n        /* \"Staking.sol\":1259:1284  rewardBalance[msg.sender] */\n      0xffffffffffffffffffffffffffffffffffffffff\n      and\n      0xffffffffffffffffffffffffffffffffffffffff\n      and\n      dup2\n      mstore\n      0x20\n      add\n      swap1\n      dup2\n      mstore\n      0x20\n      add\n      0x00\n      keccak256\n        /* \"Staking.sol\":1259:1288  rewardBalance[msg.sender] = 0 */\n      dup2\n      swap1\n      sstore\n      pop\n        /* \"Staking.sol\":1336:1341  token */\n      0x00\n      dup1\n      sload\n      swap1\n      0x0100\n      exp\n      swap1\n      div\n      0xffffffffffffffffffffffffffffffffffffffff\n      and\n        /* \"Staking.sol\":1336:1350  token.transfer */\n      0xffffffffffffffffffffffffffffffffffffffff\n      and\n      0xa9059cbb\n        /* \"Staking.sol\":1351:1361  msg.sender */\n      caller\n        /* \"Staking.sol\":1363:1369  reward */\n      dup4\n        /* \"Staking.sol\":1336:1370  token.transfer(msg.sender, reward) */\n      mload(0x40)\n      dup4\n      0xffffffff\n      and\n      0xe0\n      shl\n      dup2\n      mstore\n      0x04\n      add\n      tag_61\n      swap3\n      swap2\n      swap1\n      tag_52\n      jump\t// in\n    tag_61:\n      0x20\n      mload(0x40)\n      dup1\n      dup4\n      sub\n      dup2\n      0x00\n      dup8\n      gas\n      call\n      iszero\n      dup1\n      iszero\n      tag_63\n      jumpi\n      returndatasize\n      0x00\n      dup1\n      returndatacopy\n      revert(0x00, returndatasize)\n    tag_63:\n      pop\n      pop\n      pop\n      pop\n      mload(0x40)\n      returndatasize\n      not(0x1f)\n      0x1f\n      dup3\n      add\n      and\n      dup3\n      add\n      dup1\n      0x40\n      mstore\n      pop\n      dup2\n      add\n      swap1\n      tag_64\n      swap2\n      swap1\n      tag_56\n      jump\t// in\n    tag_64:\n      pop\n        /* \"Staking.sol\":1192:1403  {... */\n      pop\n        /* \"Staking.sol\":1161:1403  function claimRewards() public {... */\n      jump\t// out\n        /* \"Staking.sol\":281:313  uint256 public minRewardRate = 2 */\n    tag_24:\n      sload(0x03)\n      dup2\n      jump\t// out\n        /* \"Staking.sol\":170:219  mapping(address => uint256) public stakingBalance */\n    tag_29:\n      mstore(0x20, 0x01)\n      dup1\n      0x00\n      mstore\n      keccak256(0x00, 0x40)\n      0x00\n      swap2\n      pop\n      swap1\n      pop\n      sload\n      dup2\n      jump\t// out\n        /* \"Staking.sol\":226:274  mapping(address => uint256) public rewardBalance */\n    tag_33:\n      mstore(0x20, 0x02)\n      dup1\n      0x00\n      mstore\n      keccak256(0x00, 0x40)\n      0x00\n      swap2\n      pop\n      swap1\n      pop\n      sload\n      dup2\n      jump\t// out\n        /* \"Staking.sol\":390:415  uint256 public rewardRate */\n    tag_36:\n      sload(0x05)\n      dup2\n      jump\t// out\n        /* \"Staking.sol\":523:834  function stake(uint256 _amount) public {... */\n    tag_40:\n        /* \"Staking.sol\":591:592  0 */\n      0x00\n        /* \"Staking.sol\":581:588  _amount */\n      dup2\n        /* \"Staking.sol\":581:592  _amount > 0 */\n      gt\n        /* \"Staking.sol\":573:629  require(_amount > 0, \"El monto debe ser mayor que cero\") */\n      tag_66\n      jumpi\n      mload(0x40)\n      0x08c379a000000000000000000000000000000000000000000000000000000000\n      dup2\n      mstore\n      0x04\n      add\n      tag_67\n      swap1\n      tag_68\n      jump\t// in\n    tag_67:\n      mload(0x40)\n      dup1\n      swap2\n      sub\n      swap1\n      revert\n    tag_66:\n        /* \"Staking.sol\":640:645  token */\n      0x00\n      dup1\n      sload\n      swap1\n      0x0100\n      exp\n      swap1\n      div\n      0xffffffffffffffffffffffffffffffffffffffff\n      and\n        /* \"Staking.sol\":640:658  token.transferFrom */\n      0xffffffffffffffffffffffffffffffffffffffff\n      and\n      0x23b872dd\n        /* \"Staking.sol\":659:669  msg.sender */\n      caller\n        /* \"Staking.sol\":679:683  this */\n      address\n        /* \"Staking.sol\":686:693  _amount */\n      dup5\n        /* \"Staking.sol\":640:694  token.transferFrom(msg.sender, address(this), _amount) */\n      mload(0x40)\n      dup5\n      0xffffffff\n      and\n      0xe0\n      shl\n      dup2\n      mstore\n      0x04\n      add\n      tag_69\n      swap4\n      swap3\n      swap2\n      swap1\n      tag_70\n      jump\t// in\n    tag_69:\n      0x20\n      mload(0x40)\n      dup1\n      dup4\n      sub\n      dup2\n      0x00\n      dup8\n      gas\n      call\n      iszero\n      dup1\n      iszero\n      tag_72\n      jumpi\n      returndatasize\n      0x00\n      dup1\n      returndatacopy\n      revert(0x00, returndatasize)\n    tag_72:\n      pop\n      pop\n      pop\n      pop\n      mload(0x40)\n      returndatasize\n      not(0x1f)\n      0x1f\n      dup3\n      add\n      and\n      dup3\n      add\n      dup1\n      0x40\n      mstore\n      pop\n      dup2\n      add\n      swap1\n      tag_73\n      swap2\n      swap1\n      tag_56\n      jump\t// in\n    tag_73:\n      pop\n        /* \"Staking.sol\":735:742  _amount */\n      dup1\n        /* \"Staking.sol\":705:719  stakingBalance */\n      0x01\n        /* \"Staking.sol\":705:731  stakingBalance[msg.sender] */\n      0x00\n        /* \"Staking.sol\":720:730  msg.sender */\n      caller\n        /* \"Staking.sol\":705:731  stakingBalance[msg.sender] */\n      0xffffffffffffffffffffffffffffffffffffffff\n      and\n      0xffffffffffffffffffffffffffffffffffffffff\n      and\n      dup2\n      mstore\n      0x20\n      add\n      swap1\n      dup2\n      mstore\n      0x20\n      add\n      0x00\n      keccak256\n      0x00\n        /* \"Staking.sol\":705:742  stakingBalance[msg.sender] += _amount */\n      dup3\n      dup3\n      sload\n      tag_74\n      swap2\n      swap1\n      tag_75\n      jump\t// in\n    tag_74:\n      swap3\n      pop\n      pop\n      dup2\n      swap1\n      sstore\n      pop\n        /* \"Staking.sol\":523:834  function stake(uint256 _amount) public {... */\n      pop\n      jump\t// out\n        /* \"Staking.sol\":144:163  IERC20 public token */\n    tag_42:\n      0x00\n      dup1\n      sload\n      swap1\n      0x0100\n      exp\n      swap1\n      div\n      0xffffffffffffffffffffffffffffffffffffffff\n      and\n      dup2\n      jump\t// out\n        /* \"Staking.sol\":1411:1826  function calculateRewards(address _user) internal view returns (uint256) {... */\n    tag_60:\n        /* \"Staking.sol\":1475:1482  uint256 */\n      0x00\n        /* \"Staking.sol\":1576:1600  uint256 randomRewardRate */\n      dup1\n        /* \"Staking.sol\":1603:1652  getRandomRewardRate(minRewardRate, maxRewardRate) */\n      tag_77\n        /* \"Staking.sol\":1623:1636  minRewardRate */\n      sload(0x03)\n        /* \"Staking.sol\":1638:1651  maxRewardRate */\n      sload(0x04)\n        /* \"Staking.sol\":1603:1622  getRandomRewardRate */\n      tag_78\n        /* \"Staking.sol\":1603:1652  getRandomRewardRate(minRewardRate, maxRewardRate) */\n      jump\t// in\n    tag_77:\n        /* \"Staking.sol\":1576:1652  uint256 randomRewardRate = getRandomRewardRate(minRewardRate, maxRewardRate) */\n      swap1\n      pop\n        /* \"Staking.sol\":1815:1818  100 */\n      0x64\n        /* \"Staking.sol\":1795:1811  randomRewardRate */\n      dup2\n        /* \"Staking.sol\":1771:1785  stakingBalance */\n      0x01\n        /* \"Staking.sol\":1771:1792  stakingBalance[_user] */\n      0x00\n        /* \"Staking.sol\":1786:1791  _user */\n      dup7\n        /* \"Staking.sol\":1771:1792  stakingBalance[_user] */\n      0xffffffffffffffffffffffffffffffffffffffff\n      and\n      0xffffffffffffffffffffffffffffffffffffffff\n      and\n      dup2\n      mstore\n      0x20\n      add\n      swap1\n      dup2\n      mstore\n      0x20\n      add\n      0x00\n      keccak256\n      sload\n        /* \"Staking.sol\":1771:1811  stakingBalance[_user] * randomRewardRate */\n      tag_79\n      swap2\n      swap1\n      tag_80\n      jump\t// in\n    tag_79:\n        /* \"Staking.sol\":1770:1818  (stakingBalance[_user] * randomRewardRate) / 100 */\n      tag_81\n      swap2\n      swap1\n      tag_82\n      jump\t// in\n    tag_81:\n        /* \"Staking.sol\":1763:1818  return (stakingBalance[_user] * randomRewardRate) / 100 */\n      swap2\n      pop\n      pop\n        /* \"Staking.sol\":1411:1826  function calculateRewards(address _user) internal view returns (uint256) {... */\n      swap2\n      swap1\n      pop\n      jump\t// out\n        /* \"Staking.sol\":1897:2222  function getRandomRewardRate(uint256 _min, uint256 _max) internal view returns (uint256) {... */\n    tag_78:\n        /* \"Staking.sol\":1977:1984  uint256 */\n      0x00\n        /* \"Staking.sol\":2211:2212  1 */\n      0x01\n        /* \"Staking.sol\":2204:2208  _min */\n      dup4\n        /* \"Staking.sol\":2197:2201  _max */\n      dup4\n        /* \"Staking.sol\":2197:2208  _max - _min */\n      tag_84\n      swap2\n      swap1\n      tag_50\n      jump\t// in\n    tag_84:\n        /* \"Staking.sol\":2197:2212  _max - _min + 1 */\n      tag_85\n      swap2\n      swap1\n      tag_75\n      jump\t// in\n    tag_85:\n        /* \"Staking.sol\":2145:2161  block.prevrandao */\n      prevrandao\n        /* \"Staking.sol\":2163:2178  block.timestamp */\n      timestamp\n        /* \"Staking.sol\":2180:2190  msg.sender */\n      caller\n        /* \"Staking.sol\":2128:2191  abi.encodePacked(block.prevrandao, block.timestamp, msg.sender) */\n      add(0x20, mload(0x40))\n      tag_86\n      swap4\n      swap3\n      swap2\n      swap1\n      tag_87\n      jump\t// in\n    tag_86:\n      mload(0x40)\n      0x20\n      dup2\n      dup4\n      sub\n      sub\n      dup2\n      mstore\n      swap1\n      0x40\n      mstore\n        /* \"Staking.sol\":2118:2192  keccak256(abi.encodePacked(block.prevrandao, block.timestamp, msg.sender)) */\n      dup1\n      mload\n      swap1\n      0x20\n      add\n      keccak256\n        /* \"Staking.sol\":2110:2193  uint256(keccak256(abi.encodePacked(block.prevrandao, block.timestamp, msg.sender))) */\n      0x00\n      shr\n        /* \"Staking.sol\":2110:2213  uint256(keccak256(abi.encodePacked(block.prevrandao, block.timestamp, msg.sender))) % (_max - _min + 1) */\n      tag_88\n      swap2\n      swap1\n      tag_89\n      jump\t// in\n    tag_88:\n        /* \"Staking.sol\":2103:2107  _min */\n      dup4\n        /* \"Staking.sol\":2103:2213  _min + uint256(keccak256(abi.encodePacked(block.prevrandao, block.timestamp, msg.sender))) % (_max - _min + 1) */\n      tag_90\n      swap2\n      swap1\n      tag_75\n      jump\t// in\n    tag_90:\n        /* \"Staking.sol\":2095:2214  return (_min + uint256(keccak256(abi.encodePacked(block.prevrandao, block.timestamp, msg.sender))) % (_max - _min + 1)) */\n      swap1\n      pop\n        /* \"Staking.sol\":1897:2222  function getRandomRewardRate(uint256 _min, uint256 _max) internal view returns (uint256) {... */\n      swap3\n      swap2\n      pop\n      pop\n      jump\t// out\n        /* \"#utility.yul\":7:84   */\n    tag_91:\n        /* \"#utility.yul\":44:51   */\n      0x00\n        /* \"#utility.yul\":73:78   */\n      dup2\n        /* \"#utility.yul\":62:78   */\n      swap1\n      pop\n        /* \"#utility.yul\":7:84   */\n      swap2\n      swap1\n      pop\n      jump\t// out\n        /* \"#utility.yul\":90:208   */\n    tag_92:\n        /* \"#utility.yul\":177:201   */\n      tag_127\n        /* \"#utility.yul\":195:200   */\n      dup2\n        /* \"#utility.yul\":177:201   */\n      tag_91\n      jump\t// in\n    tag_127:\n        /* \"#utility.yul\":172:175   */\n      dup3\n        /* \"#utility.yul\":165:202   */\n      mstore\n        /* \"#utility.yul\":90:208   */\n      pop\n      pop\n      jump\t// out\n        /* \"#utility.yul\":214:436   */\n    tag_16:\n        /* \"#utility.yul\":307:311   */\n      0x00\n        /* \"#utility.yul\":345:347   */\n      0x20\n        /* \"#utility.yul\":334:343   */\n      dup3\n        /* \"#utility.yul\":330:348   */\n      add\n        /* \"#utility.yul\":322:348   */\n      swap1\n      pop\n        /* \"#utility.yul\":358:429   */\n      tag_129\n        /* \"#utility.yul\":426:427   */\n      0x00\n        /* \"#utility.yul\":415:424   */\n      dup4\n        /* \"#utility.yul\":411:428   */\n      add\n        /* \"#utility.yul\":402:408   */\n      dup5\n        /* \"#utility.yul\":358:429   */\n      tag_92\n      jump\t// in\n    tag_129:\n        /* \"#utility.yul\":214:436   */\n      swap3\n      swap2\n      pop\n      pop\n      jump\t// out\n        /* \"#utility.yul\":523:640   */\n    tag_94:\n        /* \"#utility.yul\":632:633   */\n      0x00\n        /* \"#utility.yul\":629:630   */\n      dup1\n        /* \"#utility.yul\":622:634   */\n      revert\n        /* \"#utility.yul\":769:891   */\n    tag_96:\n        /* \"#utility.yul\":842:866   */\n      tag_134\n        /* \"#utility.yul\":860:865   */\n      dup2\n        /* \"#utility.yul\":842:866   */\n      tag_91\n      jump\t// in\n    tag_134:\n        /* \"#utility.yul\":835:840   */\n      dup2\n        /* \"#utility.yul\":832:867   */\n      eq\n        /* \"#utility.yul\":822:885   */\n      tag_135\n      jumpi\n        /* \"#utility.yul\":881:882   */\n      0x00\n        /* \"#utility.yul\":878:879   */\n      dup1\n        /* \"#utility.yul\":871:883   */\n      revert\n        /* \"#utility.yul\":822:885   */\n    tag_135:\n        /* \"#utility.yul\":769:891   */\n      pop\n      jump\t// out\n        /* \"#utility.yul\":897:1036   */\n    tag_97:\n        /* \"#utility.yul\":943:948   */\n      0x00\n        /* \"#utility.yul\":981:987   */\n      dup2\n        /* \"#utility.yul\":968:988   */\n      calldataload\n        /* \"#utility.yul\":959:988   */\n      swap1\n      pop\n        /* \"#utility.yul\":997:1030   */\n      tag_137\n        /* \"#utility.yul\":1024:1029   */\n      dup2\n        /* \"#utility.yul\":997:1030   */\n      tag_96\n      jump\t// in\n    tag_137:\n        /* \"#utility.yul\":897:1036   */\n      swap3\n      swap2\n      pop\n      pop\n      jump\t// out\n        /* \"#utility.yul\":1042:1371   */\n    tag_19:\n        /* \"#utility.yul\":1101:1107   */\n      0x00\n        /* \"#utility.yul\":1150:1152   */\n      0x20\n        /* \"#utility.yul\":1138:1147   */\n      dup3\n        /* \"#utility.yul\":1129:1136   */\n      dup5\n        /* \"#utility.yul\":1125:1148   */\n      sub\n        /* \"#utility.yul\":1121:1153   */\n      slt\n        /* \"#utility.yul\":1118:1237   */\n      iszero\n      tag_139\n      jumpi\n        /* \"#utility.yul\":1156:1235   */\n      tag_140\n      tag_94\n      jump\t// in\n    tag_140:\n        /* \"#utility.yul\":1118:1237   */\n    tag_139:\n        /* \"#utility.yul\":1276:1277   */\n      0x00\n        /* \"#utility.yul\":1301:1354   */\n      tag_141\n        /* \"#utility.yul\":1346:1353   */\n      dup5\n        /* \"#utility.yul\":1337:1343   */\n      dup3\n        /* \"#utility.yul\":1326:1335   */\n      dup6\n        /* \"#utility.yul\":1322:1344   */\n      add\n        /* \"#utility.yul\":1301:1354   */\n      tag_97\n      jump\t// in\n    tag_141:\n        /* \"#utility.yul\":1291:1354   */\n      swap2\n      pop\n        /* \"#utility.yul\":1247:1364   */\n      pop\n        /* \"#utility.yul\":1042:1371   */\n      swap3\n      swap2\n      pop\n      pop\n      jump\t// out\n        /* \"#utility.yul\":1377:1503   */\n    tag_98:\n        /* \"#utility.yul\":1414:1421   */\n      0x00\n        /* \"#utility.yul\":1454:1496   */\n      0xffffffffffffffffffffffffffffffffffffffff\n        /* \"#utility.yul\":1447:1452   */\n      dup3\n        /* \"#utility.yul\":1443:1497   */\n      and\n        /* \"#utility.yul\":1432:1497   */\n      swap1\n      pop\n        /* \"#utility.yul\":1377:1503   */\n      swap2\n      swap1\n      pop\n      jump\t// out\n        /* \"#utility.yul\":1509:1605   */\n    tag_99:\n        /* \"#utility.yul\":1546:1553   */\n      0x00\n        /* \"#utility.yul\":1575:1599   */\n      tag_144\n        /* \"#utility.yul\":1593:1598   */\n      dup3\n        /* \"#utility.yul\":1575:1599   */\n      tag_98\n      jump\t// in\n    tag_144:\n        /* \"#utility.yul\":1564:1599   */\n      swap1\n      pop\n        /* \"#utility.yul\":1509:1605   */\n      swap2\n      swap1\n      pop\n      jump\t// out\n        /* \"#utility.yul\":1611:1733   */\n    tag_100:\n        /* \"#utility.yul\":1684:1708   */\n      tag_146\n        /* \"#utility.yul\":1702:1707   */\n      dup2\n        /* \"#utility.yul\":1684:1708   */\n      tag_99\n      jump\t// in\n    tag_146:\n        /* \"#utility.yul\":1677:1682   */\n      dup2\n        /* \"#utility.yul\":1674:1709   */\n      eq\n        /* \"#utility.yul\":1664:1727   */\n      tag_147\n      jumpi\n        /* \"#utility.yul\":1723:1724   */\n      0x00\n        /* \"#utility.yul\":1720:1721   */\n      dup1\n        /* \"#utility.yul\":1713:1725   */\n      revert\n        /* \"#utility.yul\":1664:1727   */\n    tag_147:\n        /* \"#utility.yul\":1611:1733   */\n      pop\n      jump\t// out\n        /* \"#utility.yul\":1739:1878   */\n    tag_101:\n        /* \"#utility.yul\":1785:1790   */\n      0x00\n        /* \"#utility.yul\":1823:1829   */\n      dup2\n        /* \"#utility.yul\":1810:1830   */\n      calldataload\n        /* \"#utility.yul\":1801:1830   */\n      swap1\n      pop\n        /* \"#utility.yul\":1839:1872   */\n      tag_149\n        /* \"#utility.yul\":1866:1871   */\n      dup2\n        /* \"#utility.yul\":1839:1872   */\n      tag_100\n      jump\t// in\n    tag_149:\n        /* \"#utility.yul\":1739:1878   */\n      swap3\n      swap2\n      pop\n      pop\n      jump\t// out\n        /* \"#utility.yul\":1884:2213   */\n    tag_28:\n        /* \"#utility.yul\":1943:1949   */\n      0x00\n        /* \"#utility.yul\":1992:1994   */\n      0x20\n        /* \"#utility.yul\":1980:1989   */\n      dup3\n        /* \"#utility.yul\":1971:1978   */\n      dup5\n        /* \"#utility.yul\":1967:1990   */\n      sub\n        /* \"#utility.yul\":1963:1995   */\n      slt\n        /* \"#utility.yul\":1960:2079   */\n      iszero\n      tag_151\n      jumpi\n        /* \"#utility.yul\":1998:2077   */\n      tag_152\n      tag_94\n      jump\t// in\n    tag_152:\n        /* \"#utility.yul\":1960:2079   */\n    tag_151:\n        /* \"#utility.yul\":2118:2119   */\n      0x00\n        /* \"#utility.yul\":2143:2196   */\n      tag_153\n        /* \"#utility.yul\":2188:2195   */\n      dup5\n        /* \"#utility.yul\":2179:2185   */\n      dup3\n        /* \"#utility.yul\":2168:2177   */\n      dup6\n        /* \"#utility.yul\":2164:2186   */\n      add\n        /* \"#utility.yul\":2143:2196   */\n      tag_101\n      jump\t// in\n    tag_153:\n        /* \"#utility.yul\":2133:2196   */\n      swap2\n      pop\n        /* \"#utility.yul\":2089:2206   */\n      pop\n        /* \"#utility.yul\":1884:2213   */\n      swap3\n      swap2\n      pop\n      pop\n      jump\t// out\n        /* \"#utility.yul\":2219:2279   */\n    tag_102:\n        /* \"#utility.yul\":2247:2250   */\n      0x00\n        /* \"#utility.yul\":2268:2273   */\n      dup2\n        /* \"#utility.yul\":2261:2273   */\n      swap1\n      pop\n        /* \"#utility.yul\":2219:2279   */\n      swap2\n      swap1\n      pop\n      jump\t// out\n        /* \"#utility.yul\":2285:2427   */\n    tag_103:\n        /* \"#utility.yul\":2335:2344   */\n      0x00\n        /* \"#utility.yul\":2368:2421   */\n      tag_156\n        /* \"#utility.yul\":2386:2420   */\n      tag_157\n        /* \"#utility.yul\":2395:2419   */\n      tag_158\n        /* \"#utility.yul\":2413:2418   */\n      dup5\n        /* \"#utility.yul\":2395:2419   */\n      tag_98\n      jump\t// in\n    tag_158:\n        /* \"#utility.yul\":2386:2420   */\n      tag_102\n      jump\t// in\n    tag_157:\n        /* \"#utility.yul\":2368:2421   */\n      tag_98\n      jump\t// in\n    tag_156:\n        /* \"#utility.yul\":2355:2421   */\n      swap1\n      pop\n        /* \"#utility.yul\":2285:2427   */\n      swap2\n      swap1\n      pop\n      jump\t// out\n        /* \"#utility.yul\":2433:2559   */\n    tag_104:\n        /* \"#utility.yul\":2483:2492   */\n      0x00\n        /* \"#utility.yul\":2516:2553   */\n      tag_160\n        /* \"#utility.yul\":2547:2552   */\n      dup3\n        /* \"#utility.yul\":2516:2553   */\n      tag_103\n      jump\t// in\n    tag_160:\n        /* \"#utility.yul\":2503:2553   */\n      swap1\n      pop\n        /* \"#utility.yul\":2433:2559   */\n      swap2\n      swap1\n      pop\n      jump\t// out\n        /* \"#utility.yul\":2565:2704   */\n    tag_105:\n        /* \"#utility.yul\":2628:2637   */\n      0x00\n        /* \"#utility.yul\":2661:2698   */\n      tag_162\n        /* \"#utility.yul\":2692:2697   */\n      dup3\n        /* \"#utility.yul\":2661:2698   */\n      tag_104\n      jump\t// in\n    tag_162:\n        /* \"#utility.yul\":2648:2698   */\n      swap1\n      pop\n        /* \"#utility.yul\":2565:2704   */\n      swap2\n      swap1\n      pop\n      jump\t// out\n        /* \"#utility.yul\":2710:2867   */\n    tag_106:\n        /* \"#utility.yul\":2810:2860   */\n      tag_164\n        /* \"#utility.yul\":2854:2859   */\n      dup2\n        /* \"#utility.yul\":2810:2860   */\n      tag_105\n      jump\t// in\n    tag_164:\n        /* \"#utility.yul\":2805:2808   */\n      dup3\n        /* \"#utility.yul\":2798:2861   */\n      mstore\n        /* \"#utility.yul\":2710:2867   */\n      pop\n      pop\n      jump\t// out\n        /* \"#utility.yul\":2873:3121   */\n    tag_44:\n        /* \"#utility.yul\":2979:2983   */\n      0x00\n        /* \"#utility.yul\":3017:3019   */\n      0x20\n        /* \"#utility.yul\":3006:3015   */\n      dup3\n        /* \"#utility.yul\":3002:3020   */\n      add\n        /* \"#utility.yul\":2994:3020   */\n      swap1\n      pop\n        /* \"#utility.yul\":3030:3114   */\n      tag_166\n        /* \"#utility.yul\":3111:3112   */\n      0x00\n        /* \"#utility.yul\":3100:3109   */\n      dup4\n        /* \"#utility.yul\":3096:3113   */\n      add\n        /* \"#utility.yul\":3087:3093   */\n      dup5\n        /* \"#utility.yul\":3030:3114   */\n      tag_106\n      jump\t// in\n    tag_166:\n        /* \"#utility.yul\":2873:3121   */\n      swap3\n      swap2\n      pop\n      pop\n      jump\t// out\n        /* \"#utility.yul\":3127:3296   */\n    tag_107:\n        /* \"#utility.yul\":3211:3222   */\n      0x00\n        /* \"#utility.yul\":3245:3251   */\n      dup3\n        /* \"#utility.yul\":3240:3243   */\n      dup3\n        /* \"#utility.yul\":3233:3252   */\n      mstore\n        /* \"#utility.yul\":3285:3289   */\n      0x20\n        /* \"#utility.yul\":3280:3283   */\n      dup3\n        /* \"#utility.yul\":3276:3290   */\n      add\n        /* \"#utility.yul\":3261:3290   */\n      swap1\n      pop\n        /* \"#utility.yul\":3127:3296   */\n      swap3\n      swap2\n      pop\n      pop\n      jump\t// out\n        /* \"#utility.yul\":3302:3470   */\n    tag_108:\n        /* \"#utility.yul\":3442:3462   */\n      0x53616c646f20696e737566696369656e74650000000000000000000000000000\n        /* \"#utility.yul\":3438:3439   */\n      0x00\n        /* \"#utility.yul\":3430:3436   */\n      dup3\n        /* \"#utility.yul\":3426:3440   */\n      add\n        /* \"#utility.yul\":3419:3463   */\n      mstore\n        /* \"#utility.yul\":3302:3470   */\n      pop\n      jump\t// out\n        /* \"#utility.yul\":3476:3842   */\n    tag_109:\n        /* \"#utility.yul\":3618:3621   */\n      0x00\n        /* \"#utility.yul\":3639:3706   */\n      tag_170\n        /* \"#utility.yul\":3703:3705   */\n      0x12\n        /* \"#utility.yul\":3698:3701   */\n      dup4\n        /* \"#utility.yul\":3639:3706   */\n      tag_107\n      jump\t// in\n    tag_170:\n        /* \"#utility.yul\":3632:3706   */\n      swap2\n      pop\n        /* \"#utility.yul\":3715:3808   */\n      tag_171\n        /* \"#utility.yul\":3804:3807   */\n      dup3\n        /* \"#utility.yul\":3715:3808   */\n      tag_108\n      jump\t// in\n    tag_171:\n        /* \"#utility.yul\":3833:3835   */\n      0x20\n        /* \"#utility.yul\":3828:3831   */\n      dup3\n        /* \"#utility.yul\":3824:3836   */\n      add\n        /* \"#utility.yul\":3817:3836   */\n      swap1\n      pop\n        /* \"#utility.yul\":3476:3842   */\n      swap2\n      swap1\n      pop\n      jump\t// out\n        /* \"#utility.yul\":3848:4267   */\n    tag_48:\n        /* \"#utility.yul\":4014:4018   */\n      0x00\n        /* \"#utility.yul\":4052:4054   */\n      0x20\n        /* \"#utility.yul\":4041:4050   */\n      dup3\n        /* \"#utility.yul\":4037:4055   */\n      add\n        /* \"#utility.yul\":4029:4055   */\n      swap1\n      pop\n        /* \"#utility.yul\":4101:4110   */\n      dup2\n        /* \"#utility.yul\":4095:4099   */\n      dup2\n        /* \"#utility.yul\":4091:4111   */\n      sub\n        /* \"#utility.yul\":4087:4088   */\n      0x00\n        /* \"#utility.yul\":4076:4085   */\n      dup4\n        /* \"#utility.yul\":4072:4089   */\n      add\n        /* \"#utility.yul\":4065:4112   */\n      mstore\n        /* \"#utility.yul\":4129:4260   */\n      tag_173\n        /* \"#utility.yul\":4255:4259   */\n      dup2\n        /* \"#utility.yul\":4129:4260   */\n      tag_109\n      jump\t// in\n    tag_173:\n        /* \"#utility.yul\":4121:4260   */\n      swap1\n      pop\n        /* \"#utility.yul\":3848:4267   */\n      swap2\n      swap1\n      pop\n      jump\t// out\n        /* \"#utility.yul\":4273:4453   */\n    tag_110:\n        /* \"#utility.yul\":4321:4398   */\n      0x4e487b7100000000000000000000000000000000000000000000000000000000\n        /* \"#utility.yul\":4318:4319   */\n      0x00\n        /* \"#utility.yul\":4311:4399   */\n      mstore\n        /* \"#utility.yul\":4418:4422   */\n      0x11\n        /* \"#utility.yul\":4415:4416   */\n      0x04\n        /* \"#utility.yul\":4408:4423   */\n      mstore\n        /* \"#utility.yul\":4442:4446   */\n      0x24\n        /* \"#utility.yul\":4439:4440   */\n      0x00\n        /* \"#utility.yul\":4432:4447   */\n      revert\n        /* \"#utility.yul\":4459:4653   */\n    tag_50:\n        /* \"#utility.yul\":4499:4503   */\n      0x00\n        /* \"#utility.yul\":4519:4539   */\n      tag_176\n        /* \"#utility.yul\":4537:4538   */\n      dup3\n        /* \"#utility.yul\":4519:4539   */\n      tag_91\n      jump\t// in\n    tag_176:\n        /* \"#utility.yul\":4514:4539   */\n      swap2\n      pop\n        /* \"#utility.yul\":4553:4573   */\n      tag_177\n        /* \"#utility.yul\":4571:4572   */\n      dup4\n        /* \"#utility.yul\":4553:4573   */\n      tag_91\n      jump\t// in\n    tag_177:\n        /* \"#utility.yul\":4548:4573   */\n      swap3\n      pop\n        /* \"#utility.yul\":4597:4598   */\n      dup3\n        /* \"#utility.yul\":4594:4595   */\n      dup3\n        /* \"#utility.yul\":4590:4599   */\n      sub\n        /* \"#utility.yul\":4582:4599   */\n      swap1\n      pop\n        /* \"#utility.yul\":4621:4622   */\n      dup2\n        /* \"#utility.yul\":4615:4619   */\n      dup2\n        /* \"#utility.yul\":4612:4623   */\n      gt\n        /* \"#utility.yul\":4609:4646   */\n      iszero\n      tag_178\n      jumpi\n        /* \"#utility.yul\":4626:4644   */\n      tag_179\n      tag_110\n      jump\t// in\n    tag_179:\n        /* \"#utility.yul\":4609:4646   */\n    tag_178:\n        /* \"#utility.yul\":4459:4653   */\n      swap3\n      swap2\n      pop\n      pop\n      jump\t// out\n        /* \"#utility.yul\":4659:4777   */\n    tag_111:\n        /* \"#utility.yul\":4746:4770   */\n      tag_181\n        /* \"#utility.yul\":4764:4769   */\n      dup2\n        /* \"#utility.yul\":4746:4770   */\n      tag_99\n      jump\t// in\n    tag_181:\n        /* \"#utility.yul\":4741:4744   */\n      dup3\n        /* \"#utility.yul\":4734:4771   */\n      mstore\n        /* \"#utility.yul\":4659:4777   */\n      pop\n      pop\n      jump\t// out\n        /* \"#utility.yul\":4783:5115   */\n    tag_52:\n        /* \"#utility.yul\":4904:4908   */\n      0x00\n        /* \"#utility.yul\":4942:4944   */\n      0x40\n        /* \"#utility.yul\":4931:4940   */\n      dup3\n        /* \"#utility.yul\":4927:4945   */\n      add\n        /* \"#utility.yul\":4919:4945   */\n      swap1\n      pop\n        /* \"#utility.yul\":4955:5026   */\n      tag_183\n        /* \"#utility.yul\":5023:5024   */\n      0x00\n        /* \"#utility.yul\":5012:5021   */\n      dup4\n        /* \"#utility.yul\":5008:5025   */\n      add\n        /* \"#utility.yul\":4999:5005   */\n      dup6\n        /* \"#utility.yul\":4955:5026   */\n      tag_111\n      jump\t// in\n    tag_183:\n        /* \"#utility.yul\":5036:5108   */\n      tag_184\n        /* \"#utility.yul\":5104:5106   */\n      0x20\n        /* \"#utility.yul\":5093:5102   */\n      dup4\n        /* \"#utility.yul\":5089:5107   */\n      add\n        /* \"#utility.yul\":5080:5086   */\n      dup5\n        /* \"#utility.yul\":5036:5108   */\n      tag_92\n      jump\t// in\n    tag_184:\n        /* \"#utility.yul\":4783:5115   */\n      swap4\n      swap3\n      pop\n      pop\n      pop\n      jump\t// out\n        /* \"#utility.yul\":5121:5211   */\n    tag_112:\n        /* \"#utility.yul\":5155:5162   */\n      0x00\n        /* \"#utility.yul\":5198:5203   */\n      dup2\n        /* \"#utility.yul\":5191:5204   */\n      iszero\n        /* \"#utility.yul\":5184:5205   */\n      iszero\n        /* \"#utility.yul\":5173:5205   */\n      swap1\n      pop\n        /* \"#utility.yul\":5121:5211   */\n      swap2\n      swap1\n      pop\n      jump\t// out\n        /* \"#utility.yul\":5217:5333   */\n    tag_113:\n        /* \"#utility.yul\":5287:5308   */\n      tag_187\n        /* \"#utility.yul\":5302:5307   */\n      dup2\n        /* \"#utility.yul\":5287:5308   */\n      tag_112\n      jump\t// in\n    tag_187:\n        /* \"#utility.yul\":5280:5285   */\n      dup2\n        /* \"#utility.yul\":5277:5309   */\n      eq\n        /* \"#utility.yul\":5267:5327   */\n      tag_188\n      jumpi\n        /* \"#utility.yul\":5323:5324   */\n      0x00\n        /* \"#utility.yul\":5320:5321   */\n      dup1\n        /* \"#utility.yul\":5313:5325   */\n      revert\n        /* \"#utility.yul\":5267:5327   */\n    tag_188:\n        /* \"#utility.yul\":5217:5333   */\n      pop\n      jump\t// out\n        /* \"#utility.yul\":5339:5476   */\n    tag_114:\n        /* \"#utility.yul\":5393:5398   */\n      0x00\n        /* \"#utility.yul\":5424:5430   */\n      dup2\n        /* \"#utility.yul\":5418:5431   */\n      mload\n        /* \"#utility.yul\":5409:5431   */\n      swap1\n      pop\n        /* \"#utility.yul\":5440:5470   */\n      tag_190\n        /* \"#utility.yul\":5464:5469   */\n      dup2\n        /* \"#utility.yul\":5440:5470   */\n      tag_113\n      jump\t// in\n    tag_190:\n        /* \"#utility.yul\":5339:5476   */\n      swap3\n      swap2\n      pop\n      pop\n      jump\t// out\n        /* \"#utility.yul\":5482:5827   */\n    tag_56:\n        /* \"#utility.yul\":5549:5555   */\n      0x00\n        /* \"#utility.yul\":5598:5600   */\n      0x20\n        /* \"#utility.yul\":5586:5595   */\n      dup3\n        /* \"#utility.yul\":5577:5584   */\n      dup5\n        /* \"#utility.yul\":5573:5596   */\n      sub\n        /* \"#utility.yul\":5569:5601   */\n      slt\n        /* \"#utility.yul\":5566:5685   */\n      iszero\n      tag_192\n      jumpi\n        /* \"#utility.yul\":5604:5683   */\n      tag_193\n      tag_94\n      jump\t// in\n    tag_193:\n        /* \"#utility.yul\":5566:5685   */\n    tag_192:\n        /* \"#utility.yul\":5724:5725   */\n      0x00\n        /* \"#utility.yul\":5749:5810   */\n      tag_194\n        /* \"#utility.yul\":5802:5809   */\n      dup5\n        /* \"#utility.yul\":5793:5799   */\n      dup3\n        /* \"#utility.yul\":5782:5791   */\n      dup6\n        /* \"#utility.yul\":5778:5800   */\n      add\n        /* \"#utility.yul\":5749:5810   */\n      tag_114\n      jump\t// in\n    tag_194:\n        /* \"#utility.yul\":5739:5810   */\n      swap2\n      pop\n        /* \"#utility.yul\":5695:5820   */\n      pop\n        /* \"#utility.yul\":5482:5827   */\n      swap3\n      swap2\n      pop\n      pop\n      jump\t// out\n        /* \"#utility.yul\":5833:6015   */\n    tag_115:\n        /* \"#utility.yul\":5973:6007   */\n      0x456c206d6f6e746f206465626520736572206d61796f7220717565206365726f\n        /* \"#utility.yul\":5969:5970   */\n      0x00\n        /* \"#utility.yul\":5961:5967   */\n      dup3\n        /* \"#utility.yul\":5957:5971   */\n      add\n        /* \"#utility.yul\":5950:6008   */\n      mstore\n        /* \"#utility.yul\":5833:6015   */\n      pop\n      jump\t// out\n        /* \"#utility.yul\":6021:6387   */\n    tag_116:\n        /* \"#utility.yul\":6163:6166   */\n      0x00\n        /* \"#utility.yul\":6184:6251   */\n      tag_197\n        /* \"#utility.yul\":6248:6250   */\n      0x20\n        /* \"#utility.yul\":6243:6246   */\n      dup4\n        /* \"#utility.yul\":6184:6251   */\n      tag_107\n      jump\t// in\n    tag_197:\n        /* \"#utility.yul\":6177:6251   */\n      swap2\n      pop\n        /* \"#utility.yul\":6260:6353   */\n      tag_198\n        /* \"#utility.yul\":6349:6352   */\n      dup3\n        /* \"#utility.yul\":6260:6353   */\n      tag_115\n      jump\t// in\n    tag_198:\n        /* \"#utility.yul\":6378:6380   */\n      0x20\n        /* \"#utility.yul\":6373:6376   */\n      dup3\n        /* \"#utility.yul\":6369:6381   */\n      add\n        /* \"#utility.yul\":6362:6381   */\n      swap1\n      pop\n        /* \"#utility.yul\":6021:6387   */\n      swap2\n      swap1\n      pop\n      jump\t// out\n        /* \"#utility.yul\":6393:6812   */\n    tag_68:\n        /* \"#utility.yul\":6559:6563   */\n      0x00\n        /* \"#utility.yul\":6597:6599   */\n      0x20\n        /* \"#utility.yul\":6586:6595   */\n      dup3\n        /* \"#utility.yul\":6582:6600   */\n      add\n        /* \"#utility.yul\":6574:6600   */\n      swap1\n      pop\n        /* \"#utility.yul\":6646:6655   */\n      dup2\n        /* \"#utility.yul\":6640:6644   */\n      dup2\n        /* \"#utility.yul\":6636:6656   */\n      sub\n        /* \"#utility.yul\":6632:6633   */\n      0x00\n        /* \"#utility.yul\":6621:6630   */\n      dup4\n        /* \"#utility.yul\":6617:6634   */\n      add\n        /* \"#utility.yul\":6610:6657   */\n      mstore\n        /* \"#utility.yul\":6674:6805   */\n      tag_200\n        /* \"#utility.yul\":6800:6804   */\n      dup2\n        /* \"#utility.yul\":6674:6805   */\n      tag_116\n      jump\t// in\n    tag_200:\n        /* \"#utility.yul\":6666:6805   */\n      swap1\n      pop\n        /* \"#utility.yul\":6393:6812   */\n      swap2\n      swap1\n      pop\n      jump\t// out\n        /* \"#utility.yul\":6818:7260   */\n    tag_70:\n        /* \"#utility.yul\":6967:6971   */\n      0x00\n        /* \"#utility.yul\":7005:7007   */\n      0x60\n        /* \"#utility.yul\":6994:7003   */\n      dup3\n        /* \"#utility.yul\":6990:7008   */\n      add\n        /* \"#utility.yul\":6982:7008   */\n      swap1\n      pop\n        /* \"#utility.yul\":7018:7089   */\n      tag_202\n        /* \"#utility.yul\":7086:7087   */\n      0x00\n        /* \"#utility.yul\":7075:7084   */\n      dup4\n        /* \"#utility.yul\":7071:7088   */\n      add\n        /* \"#utility.yul\":7062:7068   */\n      dup7\n        /* \"#utility.yul\":7018:7089   */\n      tag_111\n      jump\t// in\n    tag_202:\n        /* \"#utility.yul\":7099:7171   */\n      tag_203\n        /* \"#utility.yul\":7167:7169   */\n      0x20\n        /* \"#utility.yul\":7156:7165   */\n      dup4\n        /* \"#utility.yul\":7152:7170   */\n      add\n        /* \"#utility.yul\":7143:7149   */\n      dup6\n        /* \"#utility.yul\":7099:7171   */\n      tag_111\n      jump\t// in\n    tag_203:\n        /* \"#utility.yul\":7181:7253   */\n      tag_204\n        /* \"#utility.yul\":7249:7251   */\n      0x40\n        /* \"#utility.yul\":7238:7247   */\n      dup4\n        /* \"#utility.yul\":7234:7252   */\n      add\n        /* \"#utility.yul\":7225:7231   */\n      dup5\n        /* \"#utility.yul\":7181:7253   */\n      tag_92\n      jump\t// in\n    tag_204:\n        /* \"#utility.yul\":6818:7260   */\n      swap5\n      swap4\n      pop\n      pop\n      pop\n      pop\n      jump\t// out\n        /* \"#utility.yul\":7266:7457   */\n    tag_75:\n        /* \"#utility.yul\":7306:7309   */\n      0x00\n        /* \"#utility.yul\":7325:7345   */\n      tag_206\n        /* \"#utility.yul\":7343:7344   */\n      dup3\n        /* \"#utility.yul\":7325:7345   */\n      tag_91\n      jump\t// in\n    tag_206:\n        /* \"#utility.yul\":7320:7345   */\n      swap2\n      pop\n        /* \"#utility.yul\":7359:7379   */\n      tag_207\n        /* \"#utility.yul\":7377:7378   */\n      dup4\n        /* \"#utility.yul\":7359:7379   */\n      tag_91\n      jump\t// in\n    tag_207:\n        /* \"#utility.yul\":7354:7379   */\n      swap3\n      pop\n        /* \"#utility.yul\":7402:7403   */\n      dup3\n        /* \"#utility.yul\":7399:7400   */\n      dup3\n        /* \"#utility.yul\":7395:7404   */\n      add\n        /* \"#utility.yul\":7388:7404   */\n      swap1\n      pop\n        /* \"#utility.yul\":7423:7426   */\n      dup1\n        /* \"#utility.yul\":7420:7421   */\n      dup3\n        /* \"#utility.yul\":7417:7427   */\n      gt\n        /* \"#utility.yul\":7414:7450   */\n      iszero\n      tag_208\n      jumpi\n        /* \"#utility.yul\":7430:7448   */\n      tag_209\n      tag_110\n      jump\t// in\n    tag_209:\n        /* \"#utility.yul\":7414:7450   */\n    tag_208:\n        /* \"#utility.yul\":7266:7457   */\n      swap3\n      swap2\n      pop\n      pop\n      jump\t// out\n        /* \"#utility.yul\":7463:7873   */\n    tag_80:\n        /* \"#utility.yul\":7503:7510   */\n      0x00\n        /* \"#utility.yul\":7526:7546   */\n      tag_211\n        /* \"#utility.yul\":7544:7545   */\n      dup3\n        /* \"#utility.yul\":7526:7546   */\n      tag_91\n      jump\t// in\n    tag_211:\n        /* \"#utility.yul\":7521:7546   */\n      swap2\n      pop\n        /* \"#utility.yul\":7560:7580   */\n      tag_212\n        /* \"#utility.yul\":7578:7579   */\n      dup4\n        /* \"#utility.yul\":7560:7580   */\n      tag_91\n      jump\t// in\n    tag_212:\n        /* \"#utility.yul\":7555:7580   */\n      swap3\n      pop\n        /* \"#utility.yul\":7615:7616   */\n      dup3\n        /* \"#utility.yul\":7612:7613   */\n      dup3\n        /* \"#utility.yul\":7608:7617   */\n      mul\n        /* \"#utility.yul\":7637:7667   */\n      tag_213\n        /* \"#utility.yul\":7655:7666   */\n      dup2\n        /* \"#utility.yul\":7637:7667   */\n      tag_91\n      jump\t// in\n    tag_213:\n        /* \"#utility.yul\":7626:7667   */\n      swap2\n      pop\n        /* \"#utility.yul\":7816:7817   */\n      dup3\n        /* \"#utility.yul\":7807:7814   */\n      dup3\n        /* \"#utility.yul\":7803:7818   */\n      div\n        /* \"#utility.yul\":7800:7801   */\n      dup5\n        /* \"#utility.yul\":7797:7819   */\n      eq\n        /* \"#utility.yul\":7777:7778   */\n      dup4\n        /* \"#utility.yul\":7770:7779   */\n      iszero\n        /* \"#utility.yul\":7750:7833   */\n      or\n        /* \"#utility.yul\":7727:7866   */\n      tag_214\n      jumpi\n        /* \"#utility.yul\":7846:7864   */\n      tag_215\n      tag_110\n      jump\t// in\n    tag_215:\n        /* \"#utility.yul\":7727:7866   */\n    tag_214:\n        /* \"#utility.yul\":7511:7873   */\n      pop\n        /* \"#utility.yul\":7463:7873   */\n      swap3\n      swap2\n      pop\n      pop\n      jump\t// out\n        /* \"#utility.yul\":7879:8059   */\n    tag_117:\n        /* \"#utility.yul\":7927:8004   */\n      0x4e487b7100000000000000000000000000000000000000000000000000000000\n        /* \"#utility.yul\":7924:7925   */\n      0x00\n        /* \"#utility.yul\":7917:8005   */\n      mstore\n        /* \"#utility.yul\":8024:8028   */\n      0x12\n        /* \"#utility.yul\":8021:8022   */\n      0x04\n        /* \"#utility.yul\":8014:8029   */\n      mstore\n        /* \"#utility.yul\":8048:8052   */\n      0x24\n        /* \"#utility.yul\":8045:8046   */\n      0x00\n        /* \"#utility.yul\":8038:8053   */\n      revert\n        /* \"#utility.yul\":8065:8250   */\n    tag_82:\n        /* \"#utility.yul\":8105:8106   */\n      0x00\n        /* \"#utility.yul\":8122:8142   */\n      tag_218\n        /* \"#utility.yul\":8140:8141   */\n      dup3\n        /* \"#utility.yul\":8122:8142   */\n      tag_91\n      jump\t// in\n    tag_218:\n        /* \"#utility.yul\":8117:8142   */\n      swap2\n      pop\n        /* \"#utility.yul\":8156:8176   */\n      tag_219\n        /* \"#utility.yul\":8174:8175   */\n      dup4\n        /* \"#utility.yul\":8156:8176   */\n      tag_91\n      jump\t// in\n    tag_219:\n        /* \"#utility.yul\":8151:8176   */\n      swap3\n      pop\n        /* \"#utility.yul\":8195:8196   */\n      dup3\n        /* \"#utility.yul\":8185:8220   */\n      tag_220\n      jumpi\n        /* \"#utility.yul\":8200:8218   */\n      tag_221\n      tag_117\n      jump\t// in\n    tag_221:\n        /* \"#utility.yul\":8185:8220   */\n    tag_220:\n        /* \"#utility.yul\":8242:8243   */\n      dup3\n        /* \"#utility.yul\":8239:8240   */\n      dup3\n        /* \"#utility.yul\":8235:8244   */\n      div\n        /* \"#utility.yul\":8230:8244   */\n      swap1\n      pop\n        /* \"#utility.yul\":8065:8250   */\n      swap3\n      swap2\n      pop\n      pop\n      jump\t// out\n        /* \"#utility.yul\":8256:8335   */\n    tag_118:\n        /* \"#utility.yul\":8295:8302   */\n      0x00\n        /* \"#utility.yul\":8324:8329   */\n      dup2\n        /* \"#utility.yul\":8313:8329   */\n      swap1\n      pop\n        /* \"#utility.yul\":8256:8335   */\n      swap2\n      swap1\n      pop\n      jump\t// out\n        /* \"#utility.yul\":8341:8498   */\n    tag_119:\n        /* \"#utility.yul\":8446:8491   */\n      tag_224\n        /* \"#utility.yul\":8466:8490   */\n      tag_225\n        /* \"#utility.yul\":8484:8489   */\n      dup3\n        /* \"#utility.yul\":8466:8490   */\n      tag_91\n      jump\t// in\n    tag_225:\n        /* \"#utility.yul\":8446:8491   */\n      tag_118\n      jump\t// in\n    tag_224:\n        /* \"#utility.yul\":8441:8444   */\n      dup3\n        /* \"#utility.yul\":8434:8492   */\n      mstore\n        /* \"#utility.yul\":8341:8498   */\n      pop\n      pop\n      jump\t// out\n        /* \"#utility.yul\":8504:8598   */\n    tag_120:\n        /* \"#utility.yul\":8537:8545   */\n      0x00\n        /* \"#utility.yul\":8585:8590   */\n      dup2\n        /* \"#utility.yul\":8581:8583   */\n      0x60\n        /* \"#utility.yul\":8577:8591   */\n      shl\n        /* \"#utility.yul\":8556:8591   */\n      swap1\n      pop\n        /* \"#utility.yul\":8504:8598   */\n      swap2\n      swap1\n      pop\n      jump\t// out\n        /* \"#utility.yul\":8604:8698   */\n    tag_121:\n        /* \"#utility.yul\":8643:8650   */\n      0x00\n        /* \"#utility.yul\":8672:8692   */\n      tag_228\n        /* \"#utility.yul\":8686:8691   */\n      dup3\n        /* \"#utility.yul\":8672:8692   */\n      tag_120\n      jump\t// in\n    tag_228:\n        /* \"#utility.yul\":8661:8692   */\n      swap1\n      pop\n        /* \"#utility.yul\":8604:8698   */\n      swap2\n      swap1\n      pop\n      jump\t// out\n        /* \"#utility.yul\":8704:8804   */\n    tag_122:\n        /* \"#utility.yul\":8743:8750   */\n      0x00\n        /* \"#utility.yul\":8772:8798   */\n      tag_230\n        /* \"#utility.yul\":8792:8797   */\n      dup3\n        /* \"#utility.yul\":8772:8798   */\n      tag_121\n      jump\t// in\n    tag_230:\n        /* \"#utility.yul\":8761:8798   */\n      swap1\n      pop\n        /* \"#utility.yul\":8704:8804   */\n      swap2\n      swap1\n      pop\n      jump\t// out\n        /* \"#utility.yul\":8810:8967   */\n    tag_123:\n        /* \"#utility.yul\":8915:8960   */\n      tag_232\n        /* \"#utility.yul\":8935:8959   */\n      tag_233\n        /* \"#utility.yul\":8953:8958   */\n      dup3\n        /* \"#utility.yul\":8935:8959   */\n      tag_99\n      jump\t// in\n    tag_233:\n        /* \"#utility.yul\":8915:8960   */\n      tag_122\n      jump\t// in\n    tag_232:\n        /* \"#utility.yul\":8910:8913   */\n      dup3\n        /* \"#utility.yul\":8903:8961   */\n      mstore\n        /* \"#utility.yul\":8810:8967   */\n      pop\n      pop\n      jump\t// out\n        /* \"#utility.yul\":8973:9511   */\n    tag_87:\n        /* \"#utility.yul\":9141:9144   */\n      0x00\n        /* \"#utility.yul\":9156:9231   */\n      tag_235\n        /* \"#utility.yul\":9227:9230   */\n      dup3\n        /* \"#utility.yul\":9218:9224   */\n      dup7\n        /* \"#utility.yul\":9156:9231   */\n      tag_119\n      jump\t// in\n    tag_235:\n        /* \"#utility.yul\":9256:9258   */\n      0x20\n        /* \"#utility.yul\":9251:9254   */\n      dup3\n        /* \"#utility.yul\":9247:9259   */\n      add\n        /* \"#utility.yul\":9240:9259   */\n      swap2\n      pop\n        /* \"#utility.yul\":9269:9344   */\n      tag_236\n        /* \"#utility.yul\":9340:9343   */\n      dup3\n        /* \"#utility.yul\":9331:9337   */\n      dup6\n        /* \"#utility.yul\":9269:9344   */\n      tag_119\n      jump\t// in\n    tag_236:\n        /* \"#utility.yul\":9369:9371   */\n      0x20\n        /* \"#utility.yul\":9364:9367   */\n      dup3\n        /* \"#utility.yul\":9360:9372   */\n      add\n        /* \"#utility.yul\":9353:9372   */\n      swap2\n      pop\n        /* \"#utility.yul\":9382:9457   */\n      tag_237\n        /* \"#utility.yul\":9453:9456   */\n      dup3\n        /* \"#utility.yul\":9444:9450   */\n      dup5\n        /* \"#utility.yul\":9382:9457   */\n      tag_123\n      jump\t// in\n    tag_237:\n        /* \"#utility.yul\":9482:9484   */\n      0x14\n        /* \"#utility.yul\":9477:9480   */\n      dup3\n        /* \"#utility.yul\":9473:9485   */\n      add\n        /* \"#utility.yul\":9466:9485   */\n      swap2\n      pop\n        /* \"#utility.yul\":9502:9505   */\n      dup2\n        /* \"#utility.yul\":9495:9505   */\n      swap1\n      pop\n        /* \"#utility.yul\":8973:9511   */\n      swap5\n      swap4\n      pop\n      pop\n      pop\n      pop\n      jump\t// out\n        /* \"#utility.yul\":9517:9693   */\n    tag_89:\n        /* \"#utility.yul\":9549:9550   */\n      0x00\n        /* \"#utility.yul\":9566:9586   */\n      tag_239\n        /* \"#utility.yul\":9584:9585   */\n      dup3\n        /* \"#utility.yul\":9566:9586   */\n      tag_91\n      jump\t// in\n    tag_239:\n        /* \"#utility.yul\":9561:9586   */\n      swap2\n      pop\n        /* \"#utility.yul\":9600:9620   */\n      tag_240\n        /* \"#utility.yul\":9618:9619   */\n      dup4\n        /* \"#utility.yul\":9600:9620   */\n      tag_91\n      jump\t// in\n    tag_240:\n        /* \"#utility.yul\":9595:9620   */\n      swap3\n      pop\n        /* \"#utility.yul\":9639:9640   */\n      dup3\n        /* \"#utility.yul\":9629:9664   */\n      tag_241\n      jumpi\n        /* \"#utility.yul\":9644:9662   */\n      tag_242\n      tag_117\n      jump\t// in\n    tag_242:\n        /* \"#utility.yul\":9629:9664   */\n    tag_241:\n        /* \"#utility.yul\":9685:9686   */\n      dup3\n        /* \"#utility.yul\":9682:9683   */\n      dup3\n        /* \"#utility.yul\":9678:9687   */\n      mod\n        /* \"#utility.yul\":9673:9687   */\n      swap1\n      pop\n        /* \"#utility.yul\":9517:9693   */\n      swap3\n      swap2\n      pop\n      pop\n      jump\t// out\n\n    auxdata: 0xa2646970667358221220aeb231c14b1caf4427d77fb667de404dafdcf8f5f7167c1e6a76762de3052dd164736f6c634300081a0033\n}\n",
				"bytecode": {
					"linkReferences": {},
					"object": "60806040526002600355600a600455348015610019575f80fd5b50604051610d07380380610d07833981810160405281019061003b91906100ef565b805f806101000a81548173ffffffffffffffffffffffffffffffffffffffff021916908373ffffffffffffffffffffffffffffffffffffffff1602179055505061011a565b5f80fd5b5f73ffffffffffffffffffffffffffffffffffffffff82169050919050565b5f6100ad82610084565b9050919050565b5f6100be826100a3565b9050919050565b6100ce816100b4565b81146100d8575f80fd5b50565b5f815190506100e9816100c5565b92915050565b5f6020828403121561010457610103610080565b5b5f610111848285016100db565b91505092915050565b610be0806101275f395ff3fe608060405234801561000f575f80fd5b5060043610610091575f3560e01c806345bc78ab1161006457806345bc78ab146100f757806367b40cf7146101275780637b0a47ee14610157578063a694fc3a14610175578063fc0c546a1461019157610091565b80630d40ffc7146100955780632e1a7d4d146100b3578063372500ab146100cf5780633dc78f8d146100d9575b5f80fd5b61009d6101af565b6040516100aa9190610692565b60405180910390f35b6100cd60048036038101906100c891906106d9565b6101b5565b005b6100d761032e565b005b6100e161041a565b6040516100ee9190610692565b60405180910390f35b610111600480360381019061010c919061075e565b610420565b60405161011e9190610692565b60405180910390f35b610141600480360381019061013c919061075e565b610435565b60405161014e9190610692565b60405180910390f35b61015f61044a565b60405161016c9190610692565b60405180910390f35b61018f600480360381019061018a91906106d9565b610450565b005b610199610585565b6040516101a691906107e4565b60405180910390f35b60045481565b8060015f3373ffffffffffffffffffffffffffffffffffffffff1673ffffffffffffffffffffffffffffffffffffffff1681526020019081526020015f20541015610235576040517f08c379a000000000000000000000000000000000000000000000000000000000815260040161022c90610857565b60405180910390fd5b8060015f3373ffffffffffffffffffffffffffffffffffffffff1673ffffffffffffffffffffffffffffffffffffffff1681526020019081526020015f205f82825461028191906108a2565b925050819055505f8054906101000a900473ffffffffffffffffffffffffffffffffffffffff1673ffffffffffffffffffffffffffffffffffffffff1663a9059cbb33836040518363ffffffff1660e01b81526004016102e29291906108e4565b6020604051808303815f875af11580156102fe573d5f803e3d5ffd5b505050506040513d601f19601f820116820180604052508101906103229190610940565b5061032b61032e565b50565b5f610338336105a8565b90505f60025f3373ffffffffffffffffffffffffffffffffffffffff1673ffffffffffffffffffffffffffffffffffffffff1681526020019081526020015f20819055505f8054906101000a900473ffffffffffffffffffffffffffffffffffffffff1673ffffffffffffffffffffffffffffffffffffffff1663a9059cbb33836040518363ffffffff1660e01b81526004016103d69291906108e4565b6020604051808303815f875af11580156103f2573d5f803e3d5ffd5b505050506040513d601f19601f820116820180604052508101906104169190610940565b5050565b60035481565b6001602052805f5260405f205f915090505481565b6002602052805f5260405f205f915090505481565b60055481565b5f8111610492576040517f08c379a0000000000000000000000000000000000000000000000000000000008152600401610489906109b5565b60405180910390fd5b5f8054906101000a900473ffffffffffffffffffffffffffffffffffffffff1673ffffffffffffffffffffffffffffffffffffffff166323b872dd3330846040518463ffffffff1660e01b81526004016104ee939291906109d3565b6020604051808303815f875af115801561050a573d5f803e3d5ffd5b505050506040513d601f19601f8201168201806040525081019061052e9190610940565b508060015f3373ffffffffffffffffffffffffffffffffffffffff1673ffffffffffffffffffffffffffffffffffffffff1681526020019081526020015f205f82825461057b9190610a08565b9250508190555050565b5f8054906101000a900473ffffffffffffffffffffffffffffffffffffffff1681565b5f806105b8600354600454610617565b905060648160015f8673ffffffffffffffffffffffffffffffffffffffff1673ffffffffffffffffffffffffffffffffffffffff1681526020019081526020015f20546106059190610a3b565b61060f9190610aa9565b915050919050565b5f6001838361062691906108a2565b6106309190610a08565b44423360405160200161064593929190610b3e565b604051602081830303815290604052805190602001205f1c6106679190610b7a565b836106729190610a08565b905092915050565b5f819050919050565b61068c8161067a565b82525050565b5f6020820190506106a55f830184610683565b92915050565b5f80fd5b6106b88161067a565b81146106c2575f80fd5b50565b5f813590506106d3816106af565b92915050565b5f602082840312156106ee576106ed6106ab565b5b5f6106fb848285016106c5565b91505092915050565b5f73ffffffffffffffffffffffffffffffffffffffff82169050919050565b5f61072d82610704565b9050919050565b61073d81610723565b8114610747575f80fd5b50565b5f8135905061075881610734565b92915050565b5f60208284031215610773576107726106ab565b5b5f6107808482850161074a565b91505092915050565b5f819050919050565b5f6107ac6107a76107a284610704565b610789565b610704565b9050919050565b5f6107bd82610792565b9050919050565b5f6107ce826107b3565b9050919050565b6107de816107c4565b82525050565b5f6020820190506107f75f8301846107d5565b92915050565b5f82825260208201905092915050565b7f53616c646f20696e737566696369656e746500000000000000000000000000005f82015250565b5f6108416012836107fd565b915061084c8261080d565b602082019050919050565b5f6020820190508181035f83015261086e81610835565b9050919050565b7f4e487b71000000000000000000000000000000000000000000000000000000005f52601160045260245ffd5b5f6108ac8261067a565b91506108b78361067a565b92508282039050818111156108cf576108ce610875565b5b92915050565b6108de81610723565b82525050565b5f6040820190506108f75f8301856108d5565b6109046020830184610683565b9392505050565b5f8115159050919050565b61091f8161090b565b8114610929575f80fd5b50565b5f8151905061093a81610916565b92915050565b5f60208284031215610955576109546106ab565b5b5f6109628482850161092c565b91505092915050565b7f456c206d6f6e746f206465626520736572206d61796f7220717565206365726f5f82015250565b5f61099f6020836107fd565b91506109aa8261096b565b602082019050919050565b5f6020820190508181035f8301526109cc81610993565b9050919050565b5f6060820190506109e65f8301866108d5565b6109f360208301856108d5565b610a006040830184610683565b949350505050565b5f610a128261067a565b9150610a1d8361067a565b9250828201905080821115610a3557610a34610875565b5b92915050565b5f610a458261067a565b9150610a508361067a565b9250828202610a5e8161067a565b91508282048414831517610a7557610a74610875565b5b5092915050565b7f4e487b71000000000000000000000000000000000000000000000000000000005f52601260045260245ffd5b5f610ab38261067a565b9150610abe8361067a565b925082610ace57610acd610a7c565b5b828204905092915050565b5f819050919050565b610af3610aee8261067a565b610ad9565b82525050565b5f8160601b9050919050565b5f610b0f82610af9565b9050919050565b5f610b2082610b05565b9050919050565b610b38610b3382610723565b610b16565b82525050565b5f610b498286610ae2565b602082019150610b598285610ae2565b602082019150610b698284610b27565b601482019150819050949350505050565b5f610b848261067a565b9150610b8f8361067a565b925082610b9f57610b9e610a7c565b5b82820690509291505056fea2646970667358221220aeb231c14b1caf4427d77fb667de404dafdcf8f5f7167c1e6a76762de3052dd164736f6c634300081a0033",
					"opcodes": "PUSH1 0x80 PUSH1 0x40 MSTORE PUSH1 0x2 PUSH1 0x3 SSTORE PUSH1 0xA PUSH1 0x4 SSTORE CALLVALUE DUP1 ISZERO PUSH2 0x19 JUMPI PUSH0 DUP1 REVERT JUMPDEST POP PUSH1 0x40 MLOAD PUSH2 0xD07 CODESIZE SUB DUP1 PUSH2 0xD07 DUP4 CODECOPY DUP2 DUP2 ADD PUSH1 0x40 MSTORE DUP2 ADD SWAP1 PUSH2 0x3B SWAP2 SWAP1 PUSH2 0xEF JUMP JUMPDEST DUP1 PUSH0 DUP1 PUSH2 0x100 EXP DUP2 SLOAD DUP2 PUSH20 0xFFFFFFFFFFFFFFFFFFFFFFFFFFFFFFFFFFFFFFFF MUL NOT AND SWAP1 DUP4 PUSH20 0xFFFFFFFFFFFFFFFFFFFFFFFFFFFFFFFFFFFFFFFF AND MUL OR SWAP1 SSTORE POP POP PUSH2 0x11A JUMP JUMPDEST PUSH0 DUP1 REVERT JUMPDEST PUSH0 PUSH20 0xFFFFFFFFFFFFFFFFFFFFFFFFFFFFFFFFFFFFFFFF DUP3 AND SWAP1 POP SWAP2 SWAP1 POP JUMP JUMPDEST PUSH0 PUSH2 0xAD DUP3 PUSH2 0x84 JUMP JUMPDEST SWAP1 POP SWAP2 SWAP1 POP JUMP JUMPDEST PUSH0 PUSH2 0xBE DUP3 PUSH2 0xA3 JUMP JUMPDEST SWAP1 POP SWAP2 SWAP1 POP JUMP JUMPDEST PUSH2 0xCE DUP2 PUSH2 0xB4 JUMP JUMPDEST DUP2 EQ PUSH2 0xD8 JUMPI PUSH0 DUP1 REVERT JUMPDEST POP JUMP JUMPDEST PUSH0 DUP2 MLOAD SWAP1 POP PUSH2 0xE9 DUP2 PUSH2 0xC5 JUMP JUMPDEST SWAP3 SWAP2 POP POP JUMP JUMPDEST PUSH0 PUSH1 0x20 DUP3 DUP5 SUB SLT ISZERO PUSH2 0x104 JUMPI PUSH2 0x103 PUSH2 0x80 JUMP JUMPDEST JUMPDEST PUSH0 PUSH2 0x111 DUP5 DUP3 DUP6 ADD PUSH2 0xDB JUMP JUMPDEST SWAP2 POP POP SWAP3 SWAP2 POP POP JUMP JUMPDEST PUSH2 0xBE0 DUP1 PUSH2 0x127 PUSH0 CODECOPY PUSH0 RETURN INVALID PUSH1 0x80 PUSH1 0x40 MSTORE CALLVALUE DUP1 ISZERO PUSH2 0xF JUMPI PUSH0 DUP1 REVERT JUMPDEST POP PUSH1 0x4 CALLDATASIZE LT PUSH2 0x91 JUMPI PUSH0 CALLDATALOAD PUSH1 0xE0 SHR DUP1 PUSH4 0x45BC78AB GT PUSH2 0x64 JUMPI DUP1 PUSH4 0x45BC78AB EQ PUSH2 0xF7 JUMPI DUP1 PUSH4 0x67B40CF7 EQ PUSH2 0x127 JUMPI DUP1 PUSH4 0x7B0A47EE EQ PUSH2 0x157 JUMPI DUP1 PUSH4 0xA694FC3A EQ PUSH2 0x175 JUMPI DUP1 PUSH4 0xFC0C546A EQ PUSH2 0x191 JUMPI PUSH2 0x91 JUMP JUMPDEST DUP1 PUSH4 0xD40FFC7 EQ PUSH2 0x95 JUMPI DUP1 PUSH4 0x2E1A7D4D EQ PUSH2 0xB3 JUMPI DUP1 PUSH4 0x372500AB EQ PUSH2 0xCF JUMPI DUP1 PUSH4 0x3DC78F8D EQ PUSH2 0xD9 JUMPI JUMPDEST PUSH0 DUP1 REVERT JUMPDEST PUSH2 0x9D PUSH2 0x1AF JUMP JUMPDEST PUSH1 0x40 MLOAD PUSH2 0xAA SWAP2 SWAP1 PUSH2 0x692 JUMP JUMPDEST PUSH1 0x40 MLOAD DUP1 SWAP2 SUB SWAP1 RETURN JUMPDEST PUSH2 0xCD PUSH1 0x4 DUP1 CALLDATASIZE SUB DUP2 ADD SWAP1 PUSH2 0xC8 SWAP2 SWAP1 PUSH2 0x6D9 JUMP JUMPDEST PUSH2 0x1B5 JUMP JUMPDEST STOP JUMPDEST PUSH2 0xD7 PUSH2 0x32E JUMP JUMPDEST STOP JUMPDEST PUSH2 0xE1 PUSH2 0x41A JUMP JUMPDEST PUSH1 0x40 MLOAD PUSH2 0xEE SWAP2 SWAP1 PUSH2 0x692 JUMP JUMPDEST PUSH1 0x40 MLOAD DUP1 SWAP2 SUB SWAP1 RETURN JUMPDEST PUSH2 0x111 PUSH1 0x4 DUP1 CALLDATASIZE SUB DUP2 ADD SWAP1 PUSH2 0x10C SWAP2 SWAP1 PUSH2 0x75E JUMP JUMPDEST PUSH2 0x420 JUMP JUMPDEST PUSH1 0x40 MLOAD PUSH2 0x11E SWAP2 SWAP1 PUSH2 0x692 JUMP JUMPDEST PUSH1 0x40 MLOAD DUP1 SWAP2 SUB SWAP1 RETURN JUMPDEST PUSH2 0x141 PUSH1 0x4 DUP1 CALLDATASIZE SUB DUP2 ADD SWAP1 PUSH2 0x13C SWAP2 SWAP1 PUSH2 0x75E JUMP JUMPDEST PUSH2 0x435 JUMP JUMPDEST PUSH1 0x40 MLOAD PUSH2 0x14E SWAP2 SWAP1 PUSH2 0x692 JUMP JUMPDEST PUSH1 0x40 MLOAD DUP1 SWAP2 SUB SWAP1 RETURN JUMPDEST PUSH2 0x15F PUSH2 0x44A JUMP JUMPDEST PUSH1 0x40 MLOAD PUSH2 0x16C SWAP2 SWAP1 PUSH2 0x692 JUMP JUMPDEST PUSH1 0x40 MLOAD DUP1 SWAP2 SUB SWAP1 RETURN JUMPDEST PUSH2 0x18F PUSH1 0x4 DUP1 CALLDATASIZE SUB DUP2 ADD SWAP1 PUSH2 0x18A SWAP2 SWAP1 PUSH2 0x6D9 JUMP JUMPDEST PUSH2 0x450 JUMP JUMPDEST STOP JUMPDEST PUSH2 0x199 PUSH2 0x585 JUMP JUMPDEST PUSH1 0x40 MLOAD PUSH2 0x1A6 SWAP2 SWAP1 PUSH2 0x7E4 JUMP JUMPDEST PUSH1 0x40 MLOAD DUP1 SWAP2 SUB SWAP1 RETURN JUMPDEST PUSH1 0x4 SLOAD DUP2 JUMP JUMPDEST DUP1 PUSH1 0x1 PUSH0 CALLER PUSH20 0xFFFFFFFFFFFFFFFFFFFFFFFFFFFFFFFFFFFFFFFF AND PUSH20 0xFFFFFFFFFFFFFFFFFFFFFFFFFFFFFFFFFFFFFFFF AND DUP2 MSTORE PUSH1 0x20 ADD SWAP1 DUP2 MSTORE PUSH1 0x20 ADD PUSH0 KECCAK256 SLOAD LT ISZERO PUSH2 0x235 JUMPI PUSH1 0x40 MLOAD PUSH32 0x8C379A000000000000000000000000000000000000000000000000000000000 DUP2 MSTORE PUSH1 0x4 ADD PUSH2 0x22C SWAP1 PUSH2 0x857 JUMP JUMPDEST PUSH1 0x40 MLOAD DUP1 SWAP2 SUB SWAP1 REVERT JUMPDEST DUP1 PUSH1 0x1 PUSH0 CALLER PUSH20 0xFFFFFFFFFFFFFFFFFFFFFFFFFFFFFFFFFFFFFFFF AND PUSH20 0xFFFFFFFFFFFFFFFFFFFFFFFFFFFFFFFFFFFFFFFF AND DUP2 MSTORE PUSH1 0x20 ADD SWAP1 DUP2 MSTORE PUSH1 0x20 ADD PUSH0 KECCAK256 PUSH0 DUP3 DUP3 SLOAD PUSH2 0x281 SWAP2 SWAP1 PUSH2 0x8A2 JUMP JUMPDEST SWAP3 POP POP DUP2 SWAP1 SSTORE POP PUSH0 DUP1 SLOAD SWAP1 PUSH2 0x100 EXP SWAP1 DIV PUSH20 0xFFFFFFFFFFFFFFFFFFFFFFFFFFFFFFFFFFFFFFFF AND PUSH20 0xFFFFFFFFFFFFFFFFFFFFFFFFFFFFFFFFFFFFFFFF AND PUSH4 0xA9059CBB CALLER DUP4 PUSH1 0x40 MLOAD DUP4 PUSH4 0xFFFFFFFF AND PUSH1 0xE0 SHL DUP2 MSTORE PUSH1 0x4 ADD PUSH2 0x2E2 SWAP3 SWAP2 SWAP1 PUSH2 0x8E4 JUMP JUMPDEST PUSH1 0x20 PUSH1 0x40 MLOAD DUP1 DUP4 SUB DUP2 PUSH0 DUP8 GAS CALL ISZERO DUP1 ISZERO PUSH2 0x2FE JUMPI RETURNDATASIZE PUSH0 DUP1 RETURNDATACOPY RETURNDATASIZE PUSH0 REVERT JUMPDEST POP POP POP POP PUSH1 0x40 MLOAD RETURNDATASIZE PUSH1 0x1F NOT PUSH1 0x1F DUP3 ADD AND DUP3 ADD DUP1 PUSH1 0x40 MSTORE POP DUP2 ADD SWAP1 PUSH2 0x322 SWAP2 SWAP1 PUSH2 0x940 JUMP JUMPDEST POP PUSH2 0x32B PUSH2 0x32E JUMP JUMPDEST POP JUMP JUMPDEST PUSH0 PUSH2 0x338 CALLER PUSH2 0x5A8 JUMP JUMPDEST SWAP1 POP PUSH0 PUSH1 0x2 PUSH0 CALLER PUSH20 0xFFFFFFFFFFFFFFFFFFFFFFFFFFFFFFFFFFFFFFFF AND PUSH20 0xFFFFFFFFFFFFFFFFFFFFFFFFFFFFFFFFFFFFFFFF AND DUP2 MSTORE PUSH1 0x20 ADD SWAP1 DUP2 MSTORE PUSH1 0x20 ADD PUSH0 KECCAK256 DUP2 SWAP1 SSTORE POP PUSH0 DUP1 SLOAD SWAP1 PUSH2 0x100 EXP SWAP1 DIV PUSH20 0xFFFFFFFFFFFFFFFFFFFFFFFFFFFFFFFFFFFFFFFF AND PUSH20 0xFFFFFFFFFFFFFFFFFFFFFFFFFFFFFFFFFFFFFFFF AND PUSH4 0xA9059CBB CALLER DUP4 PUSH1 0x40 MLOAD DUP4 PUSH4 0xFFFFFFFF AND PUSH1 0xE0 SHL DUP2 MSTORE PUSH1 0x4 ADD PUSH2 0x3D6 SWAP3 SWAP2 SWAP1 PUSH2 0x8E4 JUMP JUMPDEST PUSH1 0x20 PUSH1 0x40 MLOAD DUP1 DUP4 SUB DUP2 PUSH0 DUP8 GAS CALL ISZERO DUP1 ISZERO PUSH2 0x3F2 JUMPI RETURNDATASIZE PUSH0 DUP1 RETURNDATACOPY RETURNDATASIZE PUSH0 REVERT JUMPDEST POP POP POP POP PUSH1 0x40 MLOAD RETURNDATASIZE PUSH1 0x1F NOT PUSH1 0x1F DUP3 ADD AND DUP3 ADD DUP1 PUSH1 0x40 MSTORE POP DUP2 ADD SWAP1 PUSH2 0x416 SWAP2 SWAP1 PUSH2 0x940 JUMP JUMPDEST POP POP JUMP JUMPDEST PUSH1 0x3 SLOAD DUP2 JUMP JUMPDEST PUSH1 0x1 PUSH1 0x20 MSTORE DUP1 PUSH0 MSTORE PUSH1 0x40 PUSH0 KECCAK256 PUSH0 SWAP2 POP SWAP1 POP SLOAD DUP2 JUMP JUMPDEST PUSH1 0x2 PUSH1 0x20 MSTORE DUP1 PUSH0 MSTORE PUSH1 0x40 PUSH0 KECCAK256 PUSH0 SWAP2 POP SWAP1 POP SLOAD DUP2 JUMP JUMPDEST PUSH1 0x5 SLOAD DUP2 JUMP JUMPDEST PUSH0 DUP2 GT PUSH2 0x492 JUMPI PUSH1 0x40 MLOAD PUSH32 0x8C379A000000000000000000000000000000000000000000000000000000000 DUP2 MSTORE PUSH1 0x4 ADD PUSH2 0x489 SWAP1 PUSH2 0x9B5 JUMP JUMPDEST PUSH1 0x40 MLOAD DUP1 SWAP2 SUB SWAP1 REVERT JUMPDEST PUSH0 DUP1 SLOAD SWAP1 PUSH2 0x100 EXP SWAP1 DIV PUSH20 0xFFFFFFFFFFFFFFFFFFFFFFFFFFFFFFFFFFFFFFFF AND PUSH20 0xFFFFFFFFFFFFFFFFFFFFFFFFFFFFFFFFFFFFFFFF AND PUSH4 0x23B872DD CALLER ADDRESS DUP5 PUSH1 0x40 MLOAD DUP5 PUSH4 0xFFFFFFFF AND PUSH1 0xE0 SHL DUP2 MSTORE PUSH1 0x4 ADD PUSH2 0x4EE SWAP4 SWAP3 SWAP2 SWAP1 PUSH2 0x9D3 JUMP JUMPDEST PUSH1 0x20 PUSH1 0x40 MLOAD DUP1 DUP4 SUB DUP2 PUSH0 DUP8 GAS CALL ISZERO DUP1 ISZERO PUSH2 0x50A JUMPI RETURNDATASIZE PUSH0 DUP1 RETURNDATACOPY RETURNDATASIZE PUSH0 REVERT JUMPDEST POP POP POP POP PUSH1 0x40 MLOAD RETURNDATASIZE PUSH1 0x1F NOT PUSH1 0x1F DUP3 ADD AND DUP3 ADD DUP1 PUSH1 0x40 MSTORE POP DUP2 ADD SWAP1 PUSH2 0x52E SWAP2 SWAP1 PUSH2 0x940 JUMP JUMPDEST POP DUP1 PUSH1 0x1 PUSH0 CALLER PUSH20 0xFFFFFFFFFFFFFFFFFFFFFFFFFFFFFFFFFFFFFFFF AND PUSH20 0xFFFFFFFFFFFFFFFFFFFFFFFFFFFFFFFFFFFFFFFF AND DUP2 MSTORE PUSH1 0x20 ADD SWAP1 DUP2 MSTORE PUSH1 0x20 ADD PUSH0 KECCAK256 PUSH0 DUP3 DUP3 SLOAD PUSH2 0x57B SWAP2 SWAP1 PUSH2 0xA08 JUMP JUMPDEST SWAP3 POP POP DUP2 SWAP1 SSTORE POP POP JUMP JUMPDEST PUSH0 DUP1 SLOAD SWAP1 PUSH2 0x100 EXP SWAP1 DIV PUSH20 0xFFFFFFFFFFFFFFFFFFFFFFFFFFFFFFFFFFFFFFFF AND DUP2 JUMP JUMPDEST PUSH0 DUP1 PUSH2 0x5B8 PUSH1 0x3 SLOAD PUSH1 0x4 SLOAD PUSH2 0x617 JUMP JUMPDEST SWAP1 POP PUSH1 0x64 DUP2 PUSH1 0x1 PUSH0 DUP7 PUSH20 0xFFFFFFFFFFFFFFFFFFFFFFFFFFFFFFFFFFFFFFFF AND PUSH20 0xFFFFFFFFFFFFFFFFFFFFFFFFFFFFFFFFFFFFFFFF AND DUP2 MSTORE PUSH1 0x20 ADD SWAP1 DUP2 MSTORE PUSH1 0x20 ADD PUSH0 KECCAK256 SLOAD PUSH2 0x605 SWAP2 SWAP1 PUSH2 0xA3B JUMP JUMPDEST PUSH2 0x60F SWAP2 SWAP1 PUSH2 0xAA9 JUMP JUMPDEST SWAP2 POP POP SWAP2 SWAP1 POP JUMP JUMPDEST PUSH0 PUSH1 0x1 DUP4 DUP4 PUSH2 0x626 SWAP2 SWAP1 PUSH2 0x8A2 JUMP JUMPDEST PUSH2 0x630 SWAP2 SWAP1 PUSH2 0xA08 JUMP JUMPDEST PREVRANDAO TIMESTAMP CALLER PUSH1 0x40 MLOAD PUSH1 0x20 ADD PUSH2 0x645 SWAP4 SWAP3 SWAP2 SWAP1 PUSH2 0xB3E JUMP JUMPDEST PUSH1 0x40 MLOAD PUSH1 0x20 DUP2 DUP4 SUB SUB DUP2 MSTORE SWAP1 PUSH1 0x40 MSTORE DUP1 MLOAD SWAP1 PUSH1 0x20 ADD KECCAK256 PUSH0 SHR PUSH2 0x667 SWAP2 SWAP1 PUSH2 0xB7A JUMP JUMPDEST DUP4 PUSH2 0x672 SWAP2 SWAP1 PUSH2 0xA08 JUMP JUMPDEST SWAP1 POP SWAP3 SWAP2 POP POP JUMP JUMPDEST PUSH0 DUP2 SWAP1 POP SWAP2 SWAP1 POP JUMP JUMPDEST PUSH2 0x68C DUP2 PUSH2 0x67A JUMP JUMPDEST DUP3 MSTORE POP POP JUMP JUMPDEST PUSH0 PUSH1 0x20 DUP3 ADD SWAP1 POP PUSH2 0x6A5 PUSH0 DUP4 ADD DUP5 PUSH2 0x683 JUMP JUMPDEST SWAP3 SWAP2 POP POP JUMP JUMPDEST PUSH0 DUP1 REVERT JUMPDEST PUSH2 0x6B8 DUP2 PUSH2 0x67A JUMP JUMPDEST DUP2 EQ PUSH2 0x6C2 JUMPI PUSH0 DUP1 REVERT JUMPDEST POP JUMP JUMPDEST PUSH0 DUP2 CALLDATALOAD SWAP1 POP PUSH2 0x6D3 DUP2 PUSH2 0x6AF JUMP JUMPDEST SWAP3 SWAP2 POP POP JUMP JUMPDEST PUSH0 PUSH1 0x20 DUP3 DUP5 SUB SLT ISZERO PUSH2 0x6EE JUMPI PUSH2 0x6ED PUSH2 0x6AB JUMP JUMPDEST JUMPDEST PUSH0 PUSH2 0x6FB DUP5 DUP3 DUP6 ADD PUSH2 0x6C5 JUMP JUMPDEST SWAP2 POP POP SWAP3 SWAP2 POP POP JUMP JUMPDEST PUSH0 PUSH20 0xFFFFFFFFFFFFFFFFFFFFFFFFFFFFFFFFFFFFFFFF DUP3 AND SWAP1 POP SWAP2 SWAP1 POP JUMP JUMPDEST PUSH0 PUSH2 0x72D DUP3 PUSH2 0x704 JUMP JUMPDEST SWAP1 POP SWAP2 SWAP1 POP JUMP JUMPDEST PUSH2 0x73D DUP2 PUSH2 0x723 JUMP JUMPDEST DUP2 EQ PUSH2 0x747 JUMPI PUSH0 DUP1 REVERT JUMPDEST POP JUMP JUMPDEST PUSH0 DUP2 CALLDATALOAD SWAP1 POP PUSH2 0x758 DUP2 PUSH2 0x734 JUMP JUMPDEST SWAP3 SWAP2 POP POP JUMP JUMPDEST PUSH0 PUSH1 0x20 DUP3 DUP5 SUB SLT ISZERO PUSH2 0x773 JUMPI PUSH2 0x772 PUSH2 0x6AB JUMP JUMPDEST JUMPDEST PUSH0 PUSH2 0x780 DUP5 DUP3 DUP6 ADD PUSH2 0x74A JUMP JUMPDEST SWAP2 POP POP SWAP3 SWAP2 POP POP JUMP JUMPDEST PUSH0 DUP2 SWAP1 POP SWAP2 SWAP1 POP JUMP JUMPDEST PUSH0 PUSH2 0x7AC PUSH2 0x7A7 PUSH2 0x7A2 DUP5 PUSH2 0x704 JUMP JUMPDEST PUSH2 0x789 JUMP JUMPDEST PUSH2 0x704 JUMP JUMPDEST SWAP1 POP SWAP2 SWAP1 POP JUMP JUMPDEST PUSH0 PUSH2 0x7BD DUP3 PUSH2 0x792 JUMP JUMPDEST SWAP1 POP SWAP2 SWAP1 POP JUMP JUMPDEST PUSH0 PUSH2 0x7CE DUP3 PUSH2 0x7B3 JUMP JUMPDEST SWAP1 POP SWAP2 SWAP1 POP JUMP JUMPDEST PUSH2 0x7DE DUP2 PUSH2 0x7C4 JUMP JUMPDEST DUP3 MSTORE POP POP JUMP JUMPDEST PUSH0 PUSH1 0x20 DUP3 ADD SWAP1 POP PUSH2 0x7F7 PUSH0 DUP4 ADD DUP5 PUSH2 0x7D5 JUMP JUMPDEST SWAP3 SWAP2 POP POP JUMP JUMPDEST PUSH0 DUP3 DUP3 MSTORE PUSH1 0x20 DUP3 ADD SWAP1 POP SWAP3 SWAP2 POP POP JUMP JUMPDEST PUSH32 0x53616C646F20696E737566696369656E74650000000000000000000000000000 PUSH0 DUP3 ADD MSTORE POP JUMP JUMPDEST PUSH0 PUSH2 0x841 PUSH1 0x12 DUP4 PUSH2 0x7FD JUMP JUMPDEST SWAP2 POP PUSH2 0x84C DUP3 PUSH2 0x80D JUMP JUMPDEST PUSH1 0x20 DUP3 ADD SWAP1 POP SWAP2 SWAP1 POP JUMP JUMPDEST PUSH0 PUSH1 0x20 DUP3 ADD SWAP1 POP DUP2 DUP2 SUB PUSH0 DUP4 ADD MSTORE PUSH2 0x86E DUP2 PUSH2 0x835 JUMP JUMPDEST SWAP1 POP SWAP2 SWAP1 POP JUMP JUMPDEST PUSH32 0x4E487B7100000000000000000000000000000000000000000000000000000000 PUSH0 MSTORE PUSH1 0x11 PUSH1 0x4 MSTORE PUSH1 0x24 PUSH0 REVERT JUMPDEST PUSH0 PUSH2 0x8AC DUP3 PUSH2 0x67A JUMP JUMPDEST SWAP2 POP PUSH2 0x8B7 DUP4 PUSH2 0x67A JUMP JUMPDEST SWAP3 POP DUP3 DUP3 SUB SWAP1 POP DUP2 DUP2 GT ISZERO PUSH2 0x8CF JUMPI PUSH2 0x8CE PUSH2 0x875 JUMP JUMPDEST JUMPDEST SWAP3 SWAP2 POP POP JUMP JUMPDEST PUSH2 0x8DE DUP2 PUSH2 0x723 JUMP JUMPDEST DUP3 MSTORE POP POP JUMP JUMPDEST PUSH0 PUSH1 0x40 DUP3 ADD SWAP1 POP PUSH2 0x8F7 PUSH0 DUP4 ADD DUP6 PUSH2 0x8D5 JUMP JUMPDEST PUSH2 0x904 PUSH1 0x20 DUP4 ADD DUP5 PUSH2 0x683 JUMP JUMPDEST SWAP4 SWAP3 POP POP POP JUMP JUMPDEST PUSH0 DUP2 ISZERO ISZERO SWAP1 POP SWAP2 SWAP1 POP JUMP JUMPDEST PUSH2 0x91F DUP2 PUSH2 0x90B JUMP JUMPDEST DUP2 EQ PUSH2 0x929 JUMPI PUSH0 DUP1 REVERT JUMPDEST POP JUMP JUMPDEST PUSH0 DUP2 MLOAD SWAP1 POP PUSH2 0x93A DUP2 PUSH2 0x916 JUMP JUMPDEST SWAP3 SWAP2 POP POP JUMP JUMPDEST PUSH0 PUSH1 0x20 DUP3 DUP5 SUB SLT ISZERO PUSH2 0x955 JUMPI PUSH2 0x954 PUSH2 0x6AB JUMP JUMPDEST JUMPDEST PUSH0 PUSH2 0x962 DUP5 DUP3 DUP6 ADD PUSH2 0x92C JUMP JUMPDEST SWAP2 POP POP SWAP3 SWAP2 POP POP JUMP JUMPDEST PUSH32 0x456C206D6F6E746F206465626520736572206D61796F7220717565206365726F PUSH0 DUP3 ADD MSTORE POP JUMP JUMPDEST PUSH0 PUSH2 0x99F PUSH1 0x20 DUP4 PUSH2 0x7FD JUMP JUMPDEST SWAP2 POP PUSH2 0x9AA DUP3 PUSH2 0x96B JUMP JUMPDEST PUSH1 0x20 DUP3 ADD SWAP1 POP SWAP2 SWAP1 POP JUMP JUMPDEST PUSH0 PUSH1 0x20 DUP3 ADD SWAP1 POP DUP2 DUP2 SUB PUSH0 DUP4 ADD MSTORE PUSH2 0x9CC DUP2 PUSH2 0x993 JUMP JUMPDEST SWAP1 POP SWAP2 SWAP1 POP JUMP JUMPDEST PUSH0 PUSH1 0x60 DUP3 ADD SWAP1 POP PUSH2 0x9E6 PUSH0 DUP4 ADD DUP7 PUSH2 0x8D5 JUMP JUMPDEST PUSH2 0x9F3 PUSH1 0x20 DUP4 ADD DUP6 PUSH2 0x8D5 JUMP JUMPDEST PUSH2 0xA00 PUSH1 0x40 DUP4 ADD DUP5 PUSH2 0x683 JUMP JUMPDEST SWAP5 SWAP4 POP POP POP POP JUMP JUMPDEST PUSH0 PUSH2 0xA12 DUP3 PUSH2 0x67A JUMP JUMPDEST SWAP2 POP PUSH2 0xA1D DUP4 PUSH2 0x67A JUMP JUMPDEST SWAP3 POP DUP3 DUP3 ADD SWAP1 POP DUP1 DUP3 GT ISZERO PUSH2 0xA35 JUMPI PUSH2 0xA34 PUSH2 0x875 JUMP JUMPDEST JUMPDEST SWAP3 SWAP2 POP POP JUMP JUMPDEST PUSH0 PUSH2 0xA45 DUP3 PUSH2 0x67A JUMP JUMPDEST SWAP2 POP PUSH2 0xA50 DUP4 PUSH2 0x67A JUMP JUMPDEST SWAP3 POP DUP3 DUP3 MUL PUSH2 0xA5E DUP2 PUSH2 0x67A JUMP JUMPDEST SWAP2 POP DUP3 DUP3 DIV DUP5 EQ DUP4 ISZERO OR PUSH2 0xA75 JUMPI PUSH2 0xA74 PUSH2 0x875 JUMP JUMPDEST JUMPDEST POP SWAP3 SWAP2 POP POP JUMP JUMPDEST PUSH32 0x4E487B7100000000000000000000000000000000000000000000000000000000 PUSH0 MSTORE PUSH1 0x12 PUSH1 0x4 MSTORE PUSH1 0x24 PUSH0 REVERT JUMPDEST PUSH0 PUSH2 0xAB3 DUP3 PUSH2 0x67A JUMP JUMPDEST SWAP2 POP PUSH2 0xABE DUP4 PUSH2 0x67A JUMP JUMPDEST SWAP3 POP DUP3 PUSH2 0xACE JUMPI PUSH2 0xACD PUSH2 0xA7C JUMP JUMPDEST JUMPDEST DUP3 DUP3 DIV SWAP1 POP SWAP3 SWAP2 POP POP JUMP JUMPDEST PUSH0 DUP2 SWAP1 POP SWAP2 SWAP1 POP JUMP JUMPDEST PUSH2 0xAF3 PUSH2 0xAEE DUP3 PUSH2 0x67A JUMP JUMPDEST PUSH2 0xAD9 JUMP JUMPDEST DUP3 MSTORE POP POP JUMP JUMPDEST PUSH0 DUP2 PUSH1 0x60 SHL SWAP1 POP SWAP2 SWAP1 POP JUMP JUMPDEST PUSH0 PUSH2 0xB0F DUP3 PUSH2 0xAF9 JUMP JUMPDEST SWAP1 POP SWAP2 SWAP1 POP JUMP JUMPDEST PUSH0 PUSH2 0xB20 DUP3 PUSH2 0xB05 JUMP JUMPDEST SWAP1 POP SWAP2 SWAP1 POP JUMP JUMPDEST PUSH2 0xB38 PUSH2 0xB33 DUP3 PUSH2 0x723 JUMP JUMPDEST PUSH2 0xB16 JUMP JUMPDEST DUP3 MSTORE POP POP JUMP JUMPDEST PUSH0 PUSH2 0xB49 DUP3 DUP7 PUSH2 0xAE2 JUMP JUMPDEST PUSH1 0x20 DUP3 ADD SWAP2 POP PUSH2 0xB59 DUP3 DUP6 PUSH2 0xAE2 JUMP JUMPDEST PUSH1 0x20 DUP3 ADD SWAP2 POP PUSH2 0xB69 DUP3 DUP5 PUSH2 0xB27 JUMP JUMPDEST PUSH1 0x14 DUP3 ADD SWAP2 POP DUP2 SWAP1 POP SWAP5 SWAP4 POP POP POP POP JUMP JUMPDEST PUSH0 PUSH2 0xB84 DUP3 PUSH2 0x67A JUMP JUMPDEST SWAP2 POP PUSH2 0xB8F DUP4 PUSH2 0x67A JUMP JUMPDEST SWAP3 POP DUP3 PUSH2 0xB9F JUMPI PUSH2 0xB9E PUSH2 0xA7C JUMP JUMPDEST JUMPDEST DUP3 DUP3 MOD SWAP1 POP SWAP3 SWAP2 POP POP JUMP INVALID LOG2 PUSH5 0x6970667358 0x22 SLT KECCAK256 0xAE 0xB2 BALANCE 0xC1 0x4B SHR 0xAF PREVRANDAO 0x27 0xD7 PUSH32 0xB667DE404DAFDCF8F5F7167C1E6A76762DE3052DD164736F6C634300081A0033 "
				},
				"gasEstimates": {
					"creation": {
						"codeDepositCost": "608000",
						"executionCost": "infinite",
						"totalCost": "infinite"
					},
					"external": {
						"claimRewards()": "infinite",
						"maxRewardRate()": "2426",
						"minRewardRate()": "2492",
						"rewardBalance(address)": "2824",
						"rewardRate()": "2469",
						"stake(uint256)": "infinite",
						"stakingBalance(address)": "2802",
						"token()": "infinite",
						"withdraw(uint256)": "infinite"
					},
					"internal": {
						"calculateRewards(address)": "infinite",
						"getRandomRewardRate(uint256,uint256)": "infinite"
					}
				},
				"methodIdentifiers": {
					"claimRewards()": "372500ab",
					"maxRewardRate()": "0d40ffc7",
					"minRewardRate()": "3dc78f8d",
					"rewardBalance(address)": "67b40cf7",
					"rewardRate()": "7b0a47ee",
					"stake(uint256)": "a694fc3a",
					"stakingBalance(address)": "45bc78ab",
					"token()": "fc0c546a",
					"withdraw(uint256)": "2e1a7d4d"
				}
			},
			"storageLayout": {
				"storage": [
					{
						"astId": 83,
						"contract": "Staking.sol:Staking",
						"label": "token",
						"offset": 0,
						"slot": "0",
						"type": "t_contract(IERC20)77"
					},
					{
						"astId": 87,
						"contract": "Staking.sol:Staking",
						"label": "stakingBalance",
						"offset": 0,
						"slot": "1",
						"type": "t_mapping(t_address,t_uint256)"
					},
					{
						"astId": 91,
						"contract": "Staking.sol:Staking",
						"label": "rewardBalance",
						"offset": 0,
						"slot": "2",
						"type": "t_mapping(t_address,t_uint256)"
					},
					{
						"astId": 94,
						"contract": "Staking.sol:Staking",
						"label": "minRewardRate",
						"offset": 0,
						"slot": "3",
						"type": "t_uint256"
					},
					{
						"astId": 97,
						"contract": "Staking.sol:Staking",
						"label": "maxRewardRate",
						"offset": 0,
						"slot": "4",
						"type": "t_uint256"
					},
					{
						"astId": 99,
						"contract": "Staking.sol:Staking",
						"label": "rewardRate",
						"offset": 0,
						"slot": "5",
						"type": "t_uint256"
					}
				],
				"types": {
					"t_address": {
						"encoding": "inplace",
						"label": "address",
						"numberOfBytes": "20"
					},
					"t_contract(IERC20)77": {
						"encoding": "inplace",
						"label": "contract IERC20",
						"numberOfBytes": "20"
					},
					"t_mapping(t_address,t_uint256)": {
						"encoding": "mapping",
						"key": "t_address",
						"label": "mapping(address => uint256)",
						"numberOfBytes": "32",
						"value": "t_uint256"
					},
					"t_uint256": {
						"encoding": "inplace",
						"label": "uint256",
						"numberOfBytes": "32"
					}
				}
			},
			"userdoc": {
				"kind": "user",
				"methods": {},
				"version": 1
			}
		}
	}
}