{
	"data": {
		"bytecode": {
			"linkReferences": {},
			"object": "60806040526002600355600a600455348015610019575f5ffd5b50604051610d0b380380610d0b833981810160405281019061003b91906100ef565b805f5f6101000a81548173ffffffffffffffffffffffffffffffffffffffff021916908373ffffffffffffffffffffffffffffffffffffffff1602179055505061011a565b5f5ffd5b5f73ffffffffffffffffffffffffffffffffffffffff82169050919050565b5f6100ad82610084565b9050919050565b5f6100be826100a3565b9050919050565b6100ce816100b4565b81146100d8575f5ffd5b50565b5f815190506100e9816100c5565b92915050565b5f6020828403121561010457610103610080565b5b5f610111848285016100db565b91505092915050565b610be4806101275f395ff3fe608060405234801561000f575f5ffd5b5060043610610091575f3560e01c806345bc78ab1161006457806345bc78ab146100f757806367b40cf7146101275780637b0a47ee14610157578063a694fc3a14610175578063fc0c546a1461019157610091565b80630d40ffc7146100955780632e1a7d4d146100b3578063372500ab146100cf5780633dc78f8d146100d9575b5f5ffd5b61009d6101af565b6040516100aa9190610696565b60405180910390f35b6100cd60048036038101906100c891906106dd565b6101b5565b005b6100d761032f565b005b6100e161041c565b6040516100ee9190610696565b60405180910390f35b610111600480360381019061010c9190610762565b610422565b60405161011e9190610696565b60405180910390f35b610141600480360381019061013c9190610762565b610437565b60405161014e9190610696565b60405180910390f35b61015f61044c565b60405161016c9190610696565b60405180910390f35b61018f600480360381019061018a91906106dd565b610452565b005b610199610588565b6040516101a691906107e8565b60405180910390f35b60045481565b8060015f3373ffffffffffffffffffffffffffffffffffffffff1673ffffffffffffffffffffffffffffffffffffffff1681526020019081526020015f20541015610235576040517f08c379a000000000000000000000000000000000000000000000000000000000815260040161022c9061085b565b60405180910390fd5b8060015f3373ffffffffffffffffffffffffffffffffffffffff1673ffffffffffffffffffffffffffffffffffffffff1681526020019081526020015f205f82825461028191906108a6565b925050819055505f5f9054906101000a900473ffffffffffffffffffffffffffffffffffffffff1673ffffffffffffffffffffffffffffffffffffffff1663a9059cbb33836040518363ffffffff1660e01b81526004016102e39291906108e8565b6020604051808303815f875af11580156102ff573d5f5f3e3d5ffd5b505050506040513d601f19601f820116820180604052508101906103239190610944565b5061032c61032f565b50565b5f610339336105ac565b90505f60025f3373ffffffffffffffffffffffffffffffffffffffff1673ffffffffffffffffffffffffffffffffffffffff1681526020019081526020015f20819055505f5f9054906101000a900473ffffffffffffffffffffffffffffffffffffffff1673ffffffffffffffffffffffffffffffffffffffff1663a9059cbb33836040518363ffffffff1660e01b81526004016103d89291906108e8565b6020604051808303815f875af11580156103f4573d5f5f3e3d5ffd5b505050506040513d601f19601f820116820180604052508101906104189190610944565b5050565b60035481565b6001602052805f5260405f205f915090505481565b6002602052805f5260405f205f915090505481565b60055481565b5f8111610494576040517f08c379a000000000000000000000000000000000000000000000000000000000815260040161048b906109b9565b60405180910390fd5b5f5f9054906101000a900473ffffffffffffffffffffffffffffffffffffffff1673ffffffffffffffffffffffffffffffffffffffff166323b872dd3330846040518463ffffffff1660e01b81526004016104f1939291906109d7565b6020604051808303815f875af115801561050d573d5f5f3e3d5ffd5b505050506040513d601f19601f820116820180604052508101906105319190610944565b508060015f3373ffffffffffffffffffffffffffffffffffffffff1673ffffffffffffffffffffffffffffffffffffffff1681526020019081526020015f205f82825461057e9190610a0c565b9250508190555050565b5f5f9054906101000a900473ffffffffffffffffffffffffffffffffffffffff1681565b5f5f6105bc60035460045461061b565b905060648160015f8673ffffffffffffffffffffffffffffffffffffffff1673ffffffffffffffffffffffffffffffffffffffff1681526020019081526020015f20546106099190610a3f565b6106139190610aad565b915050919050565b5f6001838361062a91906108a6565b6106349190610a0c565b44423360405160200161064993929190610b42565b604051602081830303815290604052805190602001205f1c61066b9190610b7e565b836106769190610a0c565b905092915050565b5f819050919050565b6106908161067e565b82525050565b5f6020820190506106a95f830184610687565b92915050565b5f5ffd5b6106bc8161067e565b81146106c6575f5ffd5b50565b5f813590506106d7816106b3565b92915050565b5f602082840312156106f2576106f16106af565b5b5f6106ff848285016106c9565b91505092915050565b5f73ffffffffffffffffffffffffffffffffffffffff82169050919050565b5f61073182610708565b9050919050565b61074181610727565b811461074b575f5ffd5b50565b5f8135905061075c81610738565b92915050565b5f60208284031215610777576107766106af565b5b5f6107848482850161074e565b91505092915050565b5f819050919050565b5f6107b06107ab6107a684610708565b61078d565b610708565b9050919050565b5f6107c182610796565b9050919050565b5f6107d2826107b7565b9050919050565b6107e2816107c8565b82525050565b5f6020820190506107fb5f8301846107d9565b92915050565b5f82825260208201905092915050565b7f53616c646f20696e737566696369656e746500000000000000000000000000005f82015250565b5f610845601283610801565b915061085082610811565b602082019050919050565b5f6020820190508181035f83015261087281610839565b9050919050565b7f4e487b71000000000000000000000000000000000000000000000000000000005f52601160045260245ffd5b5f6108b08261067e565b91506108bb8361067e565b92508282039050818111156108d3576108d2610879565b5b92915050565b6108e281610727565b82525050565b5f6040820190506108fb5f8301856108d9565b6109086020830184610687565b9392505050565b5f8115159050919050565b6109238161090f565b811461092d575f5ffd5b50565b5f8151905061093e8161091a565b92915050565b5f60208284031215610959576109586106af565b5b5f61096684828501610930565b91505092915050565b7f456c206d6f6e746f206465626520736572206d61796f7220717565206365726f5f82015250565b5f6109a3602083610801565b91506109ae8261096f565b602082019050919050565b5f6020820190508181035f8301526109d081610997565b9050919050565b5f6060820190506109ea5f8301866108d9565b6109f760208301856108d9565b610a046040830184610687565b949350505050565b5f610a168261067e565b9150610a218361067e565b9250828201905080821115610a3957610a38610879565b5b92915050565b5f610a498261067e565b9150610a548361067e565b9250828202610a628161067e565b91508282048414831517610a7957610a78610879565b5b5092915050565b7f4e487b71000000000000000000000000000000000000000000000000000000005f52601260045260245ffd5b5f610ab78261067e565b9150610ac28361067e565b925082610ad257610ad1610a80565b5b828204905092915050565b5f819050919050565b610af7610af28261067e565b610add565b82525050565b5f8160601b9050919050565b5f610b1382610afd565b9050919050565b5f610b2482610b09565b9050919050565b610b3c610b3782610727565b610b1a565b82525050565b5f610b4d8286610ae6565b602082019150610b5d8285610ae6565b602082019150610b6d8284610b2b565b601482019150819050949350505050565b5f610b888261067e565b9150610b938361067e565b925082610ba357610ba2610a80565b5b82820690509291505056fea2646970667358221220625459861618f1d74c62ecd436b5ddfffd9bfeb9afda0f08dcccca525c17a48e64736f6c634300081b0033",
			"opcodes": "PUSH1 0x80 PUSH1 0x40 MSTORE PUSH1 0x2 PUSH1 0x3 SSTORE PUSH1 0xA PUSH1 0x4 SSTORE CALLVALUE DUP1 ISZERO PUSH2 0x19 JUMPI PUSH0 PUSH0 REVERT JUMPDEST POP PUSH1 0x40 MLOAD PUSH2 0xD0B CODESIZE SUB DUP1 PUSH2 0xD0B DUP4 CODECOPY DUP2 DUP2 ADD PUSH1 0x40 MSTORE DUP2 ADD SWAP1 PUSH2 0x3B SWAP2 SWAP1 PUSH2 0xEF JUMP JUMPDEST DUP1 PUSH0 PUSH0 PUSH2 0x100 EXP DUP2 SLOAD DUP2 PUSH20 0xFFFFFFFFFFFFFFFFFFFFFFFFFFFFFFFFFFFFFFFF MUL NOT AND SWAP1 DUP4 PUSH20 0xFFFFFFFFFFFFFFFFFFFFFFFFFFFFFFFFFFFFFFFF AND MUL OR SWAP1 SSTORE POP POP PUSH2 0x11A JUMP JUMPDEST PUSH0 PUSH0 REVERT JUMPDEST PUSH0 PUSH20 0xFFFFFFFFFFFFFFFFFFFFFFFFFFFFFFFFFFFFFFFF DUP3 AND SWAP1 POP SWAP2 SWAP1 POP JUMP JUMPDEST PUSH0 PUSH2 0xAD DUP3 PUSH2 0x84 JUMP JUMPDEST SWAP1 POP SWAP2 SWAP1 POP JUMP JUMPDEST PUSH0 PUSH2 0xBE DUP3 PUSH2 0xA3 JUMP JUMPDEST SWAP1 POP SWAP2 SWAP1 POP JUMP JUMPDEST PUSH2 0xCE DUP2 PUSH2 0xB4 JUMP JUMPDEST DUP2 EQ PUSH2 0xD8 JUMPI PUSH0 PUSH0 REVERT JUMPDEST POP JUMP JUMPDEST PUSH0 DUP2 MLOAD SWAP1 POP PUSH2 0xE9 DUP2 PUSH2 0xC5 JUMP JUMPDEST SWAP3 SWAP2 POP POP JUMP JUMPDEST PUSH0 PUSH1 0x20 DUP3 DUP5 SUB SLT ISZERO PUSH2 0x104 JUMPI PUSH2 0x103 PUSH2 0x80 JUMP JUMPDEST JUMPDEST PUSH0 PUSH2 0x111 DUP5 DUP3 DUP6 ADD PUSH2 0xDB JUMP JUMPDEST SWAP2 POP POP SWAP3 SWAP2 POP POP JUMP JUMPDEST PUSH2 0xBE4 DUP1 PUSH2 0x127 PUSH0 CODECOPY PUSH0 RETURN INVALID PUSH1 0x80 PUSH1 0x40 MSTORE CALLVALUE DUP1 ISZERO PUSH2 0xF JUMPI PUSH0 PUSH0 REVERT JUMPDEST POP PUSH1 0x4 CALLDATASIZE LT PUSH2 0x91 JUMPI PUSH0 CALLDATALOAD PUSH1 0xE0 SHR DUP1 PUSH4 0x45BC78AB GT PUSH2 0x64 JUMPI DUP1 PUSH4 0x45BC78AB EQ PUSH2 0xF7 JUMPI DUP1 PUSH4 0x67B40CF7 EQ PUSH2 0x127 JUMPI DUP1 PUSH4 0x7B0A47EE EQ PUSH2 0x157 JUMPI DUP1 PUSH4 0xA694FC3A EQ PUSH2 0x175 JUMPI DUP1 PUSH4 0xFC0C546A EQ PUSH2 0x191 JUMPI PUSH2 0x91 JUMP JUMPDEST DUP1 PUSH4 0xD40FFC7 EQ PUSH2 0x95 JUMPI DUP1 PUSH4 0x2E1A7D4D EQ PUSH2 0xB3 JUMPI DUP1 PUSH4 0x372500AB EQ PUSH2 0xCF JUMPI DUP1 PUSH4 0x3DC78F8D EQ PUSH2 0xD9 JUMPI JUMPDEST PUSH0 PUSH0 REVERT JUMPDEST PUSH2 0x9D PUSH2 0x1AF JUMP JUMPDEST PUSH1 0x40 MLOAD PUSH2 0xAA SWAP2 SWAP1 PUSH2 0x696 JUMP JUMPDEST PUSH1 0x40 MLOAD DUP1 SWAP2 SUB SWAP1 RETURN JUMPDEST PUSH2 0xCD PUSH1 0x4 DUP1 CALLDATASIZE SUB DUP2 ADD SWAP1 PUSH2 0xC8 SWAP2 SWAP1 PUSH2 0x6DD JUMP JUMPDEST PUSH2 0x1B5 JUMP JUMPDEST STOP JUMPDEST PUSH2 0xD7 PUSH2 0x32F JUMP JUMPDEST STOP JUMPDEST PUSH2 0xE1 PUSH2 0x41C JUMP JUMPDEST PUSH1 0x40 MLOAD PUSH2 0xEE SWAP2 SWAP1 PUSH2 0x696 JUMP JUMPDEST PUSH1 0x40 MLOAD DUP1 SWAP2 SUB SWAP1 RETURN JUMPDEST PUSH2 0x111 PUSH1 0x4 DUP1 CALLDATASIZE SUB DUP2 ADD SWAP1 PUSH2 0x10C SWAP2 SWAP1 PUSH2 0x762 JUMP JUMPDEST PUSH2 0x422 JUMP JUMPDEST PUSH1 0x40 MLOAD PUSH2 0x11E SWAP2 SWAP1 PUSH2 0x696 JUMP JUMPDEST PUSH1 0x40 MLOAD DUP1 SWAP2 SUB SWAP1 RETURN JUMPDEST PUSH2 0x141 PUSH1 0x4 DUP1 CALLDATASIZE SUB DUP2 ADD SWAP1 PUSH2 0x13C SWAP2 SWAP1 PUSH2 0x762 JUMP JUMPDEST PUSH2 0x437 JUMP JUMPDEST PUSH1 0x40 MLOAD PUSH2 0x14E SWAP2 SWAP1 PUSH2 0x696 JUMP JUMPDEST PUSH1 0x40 MLOAD DUP1 SWAP2 SUB SWAP1 RETURN JUMPDEST PUSH2 0x15F PUSH2 0x44C JUMP JUMPDEST PUSH1 0x40 MLOAD PUSH2 0x16C SWAP2 SWAP1 PUSH2 0x696 JUMP JUMPDEST PUSH1 0x40 MLOAD DUP1 SWAP2 SUB SWAP1 RETURN JUMPDEST PUSH2 0x18F PUSH1 0x4 DUP1 CALLDATASIZE SUB DUP2 ADD SWAP1 PUSH2 0x18A SWAP2 SWAP1 PUSH2 0x6DD JUMP JUMPDEST PUSH2 0x452 JUMP JUMPDEST STOP JUMPDEST PUSH2 0x199 PUSH2 0x588 JUMP JUMPDEST PUSH1 0x40 MLOAD PUSH2 0x1A6 SWAP2 SWAP1 PUSH2 0x7E8 JUMP JUMPDEST PUSH1 0x40 MLOAD DUP1 SWAP2 SUB SWAP1 RETURN JUMPDEST PUSH1 0x4 SLOAD DUP2 JUMP JUMPDEST DUP1 PUSH1 0x1 PUSH0 CALLER PUSH20 0xFFFFFFFFFFFFFFFFFFFFFFFFFFFFFFFFFFFFFFFF AND PUSH20 0xFFFFFFFFFFFFFFFFFFFFFFFFFFFFFFFFFFFFFFFF AND DUP2 MSTORE PUSH1 0x20 ADD SWAP1 DUP2 MSTORE PUSH1 0x20 ADD PUSH0 KECCAK256 SLOAD LT ISZERO PUSH2 0x235 JUMPI PUSH1 0x40 MLOAD PUSH32 0x8C379A000000000000000000000000000000000000000000000000000000000 DUP2 MSTORE PUSH1 0x4 ADD PUSH2 0x22C SWAP1 PUSH2 0x85B JUMP JUMPDEST PUSH1 0x40 MLOAD DUP1 SWAP2 SUB SWAP1 REVERT JUMPDEST DUP1 PUSH1 0x1 PUSH0 CALLER PUSH20 0xFFFFFFFFFFFFFFFFFFFFFFFFFFFFFFFFFFFFFFFF AND PUSH20 0xFFFFFFFFFFFFFFFFFFFFFFFFFFFFFFFFFFFFFFFF AND DUP2 MSTORE PUSH1 0x20 ADD SWAP1 DUP2 MSTORE PUSH1 0x20 ADD PUSH0 KECCAK256 PUSH0 DUP3 DUP3 SLOAD PUSH2 0x281 SWAP2 SWAP1 PUSH2 0x8A6 JUMP JUMPDEST SWAP3 POP POP DUP2 SWAP1 SSTORE POP PUSH0 PUSH0 SWAP1 SLOAD SWAP1 PUSH2 0x100 EXP SWAP1 DIV PUSH20 0xFFFFFFFFFFFFFFFFFFFFFFFFFFFFFFFFFFFFFFFF AND PUSH20 0xFFFFFFFFFFFFFFFFFFFFFFFFFFFFFFFFFFFFFFFF AND PUSH4 0xA9059CBB CALLER DUP4 PUSH1 0x40 MLOAD DUP4 PUSH4 0xFFFFFFFF AND PUSH1 0xE0 SHL DUP2 MSTORE PUSH1 0x4 ADD PUSH2 0x2E3 SWAP3 SWAP2 SWAP1 PUSH2 0x8E8 JUMP JUMPDEST PUSH1 0x20 PUSH1 0x40 MLOAD DUP1 DUP4 SUB DUP2 PUSH0 DUP8 GAS CALL ISZERO DUP1 ISZERO PUSH2 0x2FF JUMPI RETURNDATASIZE PUSH0 PUSH0 RETURNDATACOPY RETURNDATASIZE PUSH0 REVERT JUMPDEST POP POP POP POP PUSH1 0x40 MLOAD RETURNDATASIZE PUSH1 0x1F NOT PUSH1 0x1F DUP3 ADD AND DUP3 ADD DUP1 PUSH1 0x40 MSTORE POP DUP2 ADD SWAP1 PUSH2 0x323 SWAP2 SWAP1 PUSH2 0x944 JUMP JUMPDEST POP PUSH2 0x32C PUSH2 0x32F JUMP JUMPDEST POP JUMP JUMPDEST PUSH0 PUSH2 0x339 CALLER PUSH2 0x5AC JUMP JUMPDEST SWAP1 POP PUSH0 PUSH1 0x2 PUSH0 CALLER PUSH20 0xFFFFFFFFFFFFFFFFFFFFFFFFFFFFFFFFFFFFFFFF AND PUSH20 0xFFFFFFFFFFFFFFFFFFFFFFFFFFFFFFFFFFFFFFFF AND DUP2 MSTORE PUSH1 0x20 ADD SWAP1 DUP2 MSTORE PUSH1 0x20 ADD PUSH0 KECCAK256 DUP2 SWAP1 SSTORE POP PUSH0 PUSH0 SWAP1 SLOAD SWAP1 PUSH2 0x100 EXP SWAP1 DIV PUSH20 0xFFFFFFFFFFFFFFFFFFFFFFFFFFFFFFFFFFFFFFFF AND PUSH20 0xFFFFFFFFFFFFFFFFFFFFFFFFFFFFFFFFFFFFFFFF AND PUSH4 0xA9059CBB CALLER DUP4 PUSH1 0x40 MLOAD DUP4 PUSH4 0xFFFFFFFF AND PUSH1 0xE0 SHL DUP2 MSTORE PUSH1 0x4 ADD PUSH2 0x3D8 SWAP3 SWAP2 SWAP1 PUSH2 0x8E8 JUMP JUMPDEST PUSH1 0x20 PUSH1 0x40 MLOAD DUP1 DUP4 SUB DUP2 PUSH0 DUP8 GAS CALL ISZERO DUP1 ISZERO PUSH2 0x3F4 JUMPI RETURNDATASIZE PUSH0 PUSH0 RETURNDATACOPY RETURNDATASIZE PUSH0 REVERT JUMPDEST POP POP POP POP PUSH1 0x40 MLOAD RETURNDATASIZE PUSH1 0x1F NOT PUSH1 0x1F DUP3 ADD AND DUP3 ADD DUP1 PUSH1 0x40 MSTORE POP DUP2 ADD SWAP1 PUSH2 0x418 SWAP2 SWAP1 PUSH2 0x944 JUMP JUMPDEST POP POP JUMP JUMPDEST PUSH1 0x3 SLOAD DUP2 JUMP JUMPDEST PUSH1 0x1 PUSH1 0x20 MSTORE DUP1 PUSH0 MSTORE PUSH1 0x40 PUSH0 KECCAK256 PUSH0 SWAP2 POP SWAP1 POP SLOAD DUP2 JUMP JUMPDEST PUSH1 0x2 PUSH1 0x20 MSTORE DUP1 PUSH0 MSTORE PUSH1 0x40 PUSH0 KECCAK256 PUSH0 SWAP2 POP SWAP1 POP SLOAD DUP2 JUMP JUMPDEST PUSH1 0x5 SLOAD DUP2 JUMP JUMPDEST PUSH0 DUP2 GT PUSH2 0x494 JUMPI PUSH1 0x40 MLOAD PUSH32 0x8C379A000000000000000000000000000000000000000000000000000000000 DUP2 MSTORE PUSH1 0x4 ADD PUSH2 0x48B SWAP1 PUSH2 0x9B9 JUMP JUMPDEST PUSH1 0x40 MLOAD DUP1 SWAP2 SUB SWAP1 REVERT JUMPDEST PUSH0 PUSH0 SWAP1 SLOAD SWAP1 PUSH2 0x100 EXP SWAP1 DIV PUSH20 0xFFFFFFFFFFFFFFFFFFFFFFFFFFFFFFFFFFFFFFFF AND PUSH20 0xFFFFFFFFFFFFFFFFFFFFFFFFFFFFFFFFFFFFFFFF AND PUSH4 0x23B872DD CALLER ADDRESS DUP5 PUSH1 0x40 MLOAD DUP5 PUSH4 0xFFFFFFFF AND PUSH1 0xE0 SHL DUP2 MSTORE PUSH1 0x4 ADD PUSH2 0x4F1 SWAP4 SWAP3 SWAP2 SWAP1 PUSH2 0x9D7 JUMP JUMPDEST PUSH1 0x20 PUSH1 0x40 MLOAD DUP1 DUP4 SUB DUP2 PUSH0 DUP8 GAS CALL ISZERO DUP1 ISZERO PUSH2 0x50D JUMPI RETURNDATASIZE PUSH0 PUSH0 RETURNDATACOPY RETURNDATASIZE PUSH0 REVERT JUMPDEST POP POP POP POP PUSH1 0x40 MLOAD RETURNDATASIZE PUSH1 0x1F NOT PUSH1 0x1F DUP3 ADD AND DUP3 ADD DUP1 PUSH1 0x40 MSTORE POP DUP2 ADD SWAP1 PUSH2 0x531 SWAP2 SWAP1 PUSH2 0x944 JUMP JUMPDEST POP DUP1 PUSH1 0x1 PUSH0 CALLER PUSH20 0xFFFFFFFFFFFFFFFFFFFFFFFFFFFFFFFFFFFFFFFF AND PUSH20 0xFFFFFFFFFFFFFFFFFFFFFFFFFFFFFFFFFFFFFFFF AND DUP2 MSTORE PUSH1 0x20 ADD SWAP1 DUP2 MSTORE PUSH1 0x20 ADD PUSH0 KECCAK256 PUSH0 DUP3 DUP3 SLOAD PUSH2 0x57E SWAP2 SWAP1 PUSH2 0xA0C JUMP JUMPDEST SWAP3 POP POP DUP2 SWAP1 SSTORE POP POP JUMP JUMPDEST PUSH0 PUSH0 SWAP1 SLOAD SWAP1 PUSH2 0x100 EXP SWAP1 DIV PUSH20 0xFFFFFFFFFFFFFFFFFFFFFFFFFFFFFFFFFFFFFFFF AND DUP2 JUMP JUMPDEST PUSH0 PUSH0 PUSH2 0x5BC PUSH1 0x3 SLOAD PUSH1 0x4 SLOAD PUSH2 0x61B JUMP JUMPDEST SWAP1 POP PUSH1 0x64 DUP2 PUSH1 0x1 PUSH0 DUP7 PUSH20 0xFFFFFFFFFFFFFFFFFFFFFFFFFFFFFFFFFFFFFFFF AND PUSH20 0xFFFFFFFFFFFFFFFFFFFFFFFFFFFFFFFFFFFFFFFF AND DUP2 MSTORE PUSH1 0x20 ADD SWAP1 DUP2 MSTORE PUSH1 0x20 ADD PUSH0 KECCAK256 SLOAD PUSH2 0x609 SWAP2 SWAP1 PUSH2 0xA3F JUMP JUMPDEST PUSH2 0x613 SWAP2 SWAP1 PUSH2 0xAAD JUMP JUMPDEST SWAP2 POP POP SWAP2 SWAP1 POP JUMP JUMPDEST PUSH0 PUSH1 0x1 DUP4 DUP4 PUSH2 0x62A SWAP2 SWAP1 PUSH2 0x8A6 JUMP JUMPDEST PUSH2 0x634 SWAP2 SWAP1 PUSH2 0xA0C JUMP JUMPDEST PREVRANDAO TIMESTAMP CALLER PUSH1 0x40 MLOAD PUSH1 0x20 ADD PUSH2 0x649 SWAP4 SWAP3 SWAP2 SWAP1 PUSH2 0xB42 JUMP JUMPDEST PUSH1 0x40 MLOAD PUSH1 0x20 DUP2 DUP4 SUB SUB DUP2 MSTORE SWAP1 PUSH1 0x40 MSTORE DUP1 MLOAD SWAP1 PUSH1 0x20 ADD KECCAK256 PUSH0 SHR PUSH2 0x66B SWAP2 SWAP1 PUSH2 0xB7E JUMP JUMPDEST DUP4 PUSH2 0x676 SWAP2 SWAP1 PUSH2 0xA0C JUMP JUMPDEST SWAP1 POP SWAP3 SWAP2 POP POP JUMP JUMPDEST PUSH0 DUP2 SWAP1 POP SWAP2 SWAP1 POP JUMP JUMPDEST PUSH2 0x690 DUP2 PUSH2 0x67E JUMP JUMPDEST DUP3 MSTORE POP POP JUMP JUMPDEST PUSH0 PUSH1 0x20 DUP3 ADD SWAP1 POP PUSH2 0x6A9 PUSH0 DUP4 ADD DUP5 PUSH2 0x687 JUMP JUMPDEST SWAP3 SWAP2 POP POP JUMP JUMPDEST PUSH0 PUSH0 REVERT JUMPDEST PUSH2 0x6BC DUP2 PUSH2 0x67E JUMP JUMPDEST DUP2 EQ PUSH2 0x6C6 JUMPI PUSH0 PUSH0 REVERT JUMPDEST POP JUMP JUMPDEST PUSH0 DUP2 CALLDATALOAD SWAP1 POP PUSH2 0x6D7 DUP2 PUSH2 0x6B3 JUMP JUMPDEST SWAP3 SWAP2 POP POP JUMP JUMPDEST PUSH0 PUSH1 0x20 DUP3 DUP5 SUB SLT ISZERO PUSH2 0x6F2 JUMPI PUSH2 0x6F1 PUSH2 0x6AF JUMP JUMPDEST JUMPDEST PUSH0 PUSH2 0x6FF DUP5 DUP3 DUP6 ADD PUSH2 0x6C9 JUMP JUMPDEST SWAP2 POP POP SWAP3 SWAP2 POP POP JUMP JUMPDEST PUSH0 PUSH20 0xFFFFFFFFFFFFFFFFFFFFFFFFFFFFFFFFFFFFFFFF DUP3 AND SWAP1 POP SWAP2 SWAP1 POP JUMP JUMPDEST PUSH0 PUSH2 0x731 DUP3 PUSH2 0x708 JUMP JUMPDEST SWAP1 POP SWAP2 SWAP1 POP JUMP JUMPDEST PUSH2 0x741 DUP2 PUSH2 0x727 JUMP JUMPDEST DUP2 EQ PUSH2 0x74B JUMPI PUSH0 PUSH0 REVERT JUMPDEST POP JUMP JUMPDEST PUSH0 DUP2 CALLDATALOAD SWAP1 POP PUSH2 0x75C DUP2 PUSH2 0x738 JUMP JUMPDEST SWAP3 SWAP2 POP POP JUMP JUMPDEST PUSH0 PUSH1 0x20 DUP3 DUP5 SUB SLT ISZERO PUSH2 0x777 JUMPI PUSH2 0x776 PUSH2 0x6AF JUMP JUMPDEST JUMPDEST PUSH0 PUSH2 0x784 DUP5 DUP3 DUP6 ADD PUSH2 0x74E JUMP JUMPDEST SWAP2 POP POP SWAP3 SWAP2 POP POP JUMP JUMPDEST PUSH0 DUP2 SWAP1 POP SWAP2 SWAP1 POP JUMP JUMPDEST PUSH0 PUSH2 0x7B0 PUSH2 0x7AB PUSH2 0x7A6 DUP5 PUSH2 0x708 JUMP JUMPDEST PUSH2 0x78D JUMP JUMPDEST PUSH2 0x708 JUMP JUMPDEST SWAP1 POP SWAP2 SWAP1 POP JUMP JUMPDEST PUSH0 PUSH2 0x7C1 DUP3 PUSH2 0x796 JUMP JUMPDEST SWAP1 POP SWAP2 SWAP1 POP JUMP JUMPDEST PUSH0 PUSH2 0x7D2 DUP3 PUSH2 0x7B7 JUMP JUMPDEST SWAP1 POP SWAP2 SWAP1 POP JUMP JUMPDEST PUSH2 0x7E2 DUP2 PUSH2 0x7C8 JUMP JUMPDEST DUP3 MSTORE POP POP JUMP JUMPDEST PUSH0 PUSH1 0x20 DUP3 ADD SWAP1 POP PUSH2 0x7FB PUSH0 DUP4 ADD DUP5 PUSH2 0x7D9 JUMP JUMPDEST SWAP3 SWAP2 POP POP JUMP JUMPDEST PUSH0 DUP3 DUP3 MSTORE PUSH1 0x20 DUP3 ADD SWAP1 POP SWAP3 SWAP2 POP POP JUMP JUMPDEST PUSH32 0x53616C646F20696E737566696369656E74650000000000000000000000000000 PUSH0 DUP3 ADD MSTORE POP JUMP JUMPDEST PUSH0 PUSH2 0x845 PUSH1 0x12 DUP4 PUSH2 0x801 JUMP JUMPDEST SWAP2 POP PUSH2 0x850 DUP3 PUSH2 0x811 JUMP JUMPDEST PUSH1 0x20 DUP3 ADD SWAP1 POP SWAP2 SWAP1 POP JUMP JUMPDEST PUSH0 PUSH1 0x20 DUP3 ADD SWAP1 POP DUP2 DUP2 SUB PUSH0 DUP4 ADD MSTORE PUSH2 0x872 DUP2 PUSH2 0x839 JUMP JUMPDEST SWAP1 POP SWAP2 SWAP1 POP JUMP JUMPDEST PUSH32 0x4E487B7100000000000000000000000000000000000000000000000000000000 PUSH0 MSTORE PUSH1 0x11 PUSH1 0x4 MSTORE PUSH1 0x24 PUSH0 REVERT JUMPDEST PUSH0 PUSH2 0x8B0 DUP3 PUSH2 0x67E JUMP JUMPDEST SWAP2 POP PUSH2 0x8BB DUP4 PUSH2 0x67E JUMP JUMPDEST SWAP3 POP DUP3 DUP3 SUB SWAP1 POP DUP2 DUP2 GT ISZERO PUSH2 0x8D3 JUMPI PUSH2 0x8D2 PUSH2 0x879 JUMP JUMPDEST JUMPDEST SWAP3 SWAP2 POP POP JUMP JUMPDEST PUSH2 0x8E2 DUP2 PUSH2 0x727 JUMP JUMPDEST DUP3 MSTORE POP POP JUMP JUMPDEST PUSH0 PUSH1 0x40 DUP3 ADD SWAP1 POP PUSH2 0x8FB PUSH0 DUP4 ADD DUP6 PUSH2 0x8D9 JUMP JUMPDEST PUSH2 0x908 PUSH1 0x20 DUP4 ADD DUP5 PUSH2 0x687 JUMP JUMPDEST SWAP4 SWAP3 POP POP POP JUMP JUMPDEST PUSH0 DUP2 ISZERO ISZERO SWAP1 POP SWAP2 SWAP1 POP JUMP JUMPDEST PUSH2 0x923 DUP2 PUSH2 0x90F JUMP JUMPDEST DUP2 EQ PUSH2 0x92D JUMPI PUSH0 PUSH0 REVERT JUMPDEST POP JUMP JUMPDEST PUSH0 DUP2 MLOAD SWAP1 POP PUSH2 0x93E DUP2 PUSH2 0x91A JUMP JUMPDEST SWAP3 SWAP2 POP POP JUMP JUMPDEST PUSH0 PUSH1 0x20 DUP3 DUP5 SUB SLT ISZERO PUSH2 0x959 JUMPI PUSH2 0x958 PUSH2 0x6AF JUMP JUMPDEST JUMPDEST PUSH0 PUSH2 0x966 DUP5 DUP3 DUP6 ADD PUSH2 0x930 JUMP JUMPDEST SWAP2 POP POP SWAP3 SWAP2 POP POP JUMP JUMPDEST PUSH32 0x456C206D6F6E746F206465626520736572206D61796F7220717565206365726F PUSH0 DUP3 ADD MSTORE POP JUMP JUMPDEST PUSH0 PUSH2 0x9A3 PUSH1 0x20 DUP4 PUSH2 0x801 JUMP JUMPDEST SWAP2 POP PUSH2 0x9AE DUP3 PUSH2 0x96F JUMP JUMPDEST PUSH1 0x20 DUP3 ADD SWAP1 POP SWAP2 SWAP1 POP JUMP JUMPDEST PUSH0 PUSH1 0x20 DUP3 ADD SWAP1 POP DUP2 DUP2 SUB PUSH0 DUP4 ADD MSTORE PUSH2 0x9D0 DUP2 PUSH2 0x997 JUMP JUMPDEST SWAP1 POP SWAP2 SWAP1 POP JUMP JUMPDEST PUSH0 PUSH1 0x60 DUP3 ADD SWAP1 POP PUSH2 0x9EA PUSH0 DUP4 ADD DUP7 PUSH2 0x8D9 JUMP JUMPDEST PUSH2 0x9F7 PUSH1 0x20 DUP4 ADD DUP6 PUSH2 0x8D9 JUMP JUMPDEST PUSH2 0xA04 PUSH1 0x40 DUP4 ADD DUP5 PUSH2 0x687 JUMP JUMPDEST SWAP5 SWAP4 POP POP POP POP JUMP JUMPDEST PUSH0 PUSH2 0xA16 DUP3 PUSH2 0x67E JUMP JUMPDEST SWAP2 POP PUSH2 0xA21 DUP4 PUSH2 0x67E JUMP JUMPDEST SWAP3 POP DUP3 DUP3 ADD SWAP1 POP DUP1 DUP3 GT ISZERO PUSH2 0xA39 JUMPI PUSH2 0xA38 PUSH2 0x879 JUMP JUMPDEST JUMPDEST SWAP3 SWAP2 POP POP JUMP JUMPDEST PUSH0 PUSH2 0xA49 DUP3 PUSH2 0x67E JUMP JUMPDEST SWAP2 POP PUSH2 0xA54 DUP4 PUSH2 0x67E JUMP JUMPDEST SWAP3 POP DUP3 DUP3 MUL PUSH2 0xA62 DUP2 PUSH2 0x67E JUMP JUMPDEST SWAP2 POP DUP3 DUP3 DIV DUP5 EQ DUP4 ISZERO OR PUSH2 0xA79 JUMPI PUSH2 0xA78 PUSH2 0x879 JUMP JUMPDEST JUMPDEST POP SWAP3 SWAP2 POP POP JUMP JUMPDEST PUSH32 0x4E487B7100000000000000000000000000000000000000000000000000000000 PUSH0 MSTORE PUSH1 0x12 PUSH1 0x4 MSTORE PUSH1 0x24 PUSH0 REVERT JUMPDEST PUSH0 PUSH2 0xAB7 DUP3 PUSH2 0x67E JUMP JUMPDEST SWAP2 POP PUSH2 0xAC2 DUP4 PUSH2 0x67E JUMP JUMPDEST SWAP3 POP DUP3 PUSH2 0xAD2 JUMPI PUSH2 0xAD1 PUSH2 0xA80 JUMP JUMPDEST JUMPDEST DUP3 DUP3 DIV SWAP1 POP SWAP3 SWAP2 POP POP JUMP JUMPDEST PUSH0 DUP2 SWAP1 POP SWAP2 SWAP1 POP JUMP JUMPDEST PUSH2 0xAF7 PUSH2 0xAF2 DUP3 PUSH2 0x67E JUMP JUMPDEST PUSH2 0xADD JUMP JUMPDEST DUP3 MSTORE POP POP JUMP JUMPDEST PUSH0 DUP2 PUSH1 0x60 SHL SWAP1 POP SWAP2 SWAP1 POP JUMP JUMPDEST PUSH0 PUSH2 0xB13 DUP3 PUSH2 0xAFD JUMP JUMPDEST SWAP1 POP SWAP2 SWAP1 POP JUMP JUMPDEST PUSH0 PUSH2 0xB24 DUP3 PUSH2 0xB09 JUMP JUMPDEST SWAP1 POP SWAP2 SWAP1 POP JUMP JUMPDEST PUSH2 0xB3C PUSH2 0xB37 DUP3 PUSH2 0x727 JUMP JUMPDEST PUSH2 0xB1A JUMP JUMPDEST DUP3 MSTORE POP POP JUMP JUMPDEST PUSH0 PUSH2 0xB4D DUP3 DUP7 PUSH2 0xAE6 JUMP JUMPDEST PUSH1 0x20 DUP3 ADD SWAP2 POP PUSH2 0xB5D DUP3 DUP6 PUSH2 0xAE6 JUMP JUMPDEST PUSH1 0x20 DUP3 ADD SWAP2 POP PUSH2 0xB6D DUP3 DUP5 PUSH2 0xB2B JUMP JUMPDEST PUSH1 0x14 DUP3 ADD SWAP2 POP DUP2 SWAP1 POP SWAP5 SWAP4 POP POP POP POP JUMP JUMPDEST PUSH0 PUSH2 0xB88 DUP3 PUSH2 0x67E JUMP JUMPDEST SWAP2 POP PUSH2 0xB93 DUP4 PUSH2 0x67E JUMP JUMPDEST SWAP3 POP DUP3 PUSH2 0xBA3 JUMPI PUSH2 0xBA2 PUSH2 0xA80 JUMP JUMPDEST JUMPDEST DUP3 DUP3 MOD SWAP1 POP SWAP3 SWAP2 POP POP JUMP INVALID LOG2 PUSH5 0x6970667358 0x22 SLT KECCAK256 PUSH3 0x545986 AND XOR CALL 0xD7 0x4C PUSH3 0xECD436 0xB5 0xDD SELFDESTRUCT REVERT SWAP12 INVALID 0xB9 0xAF 0xDA 0xF ADDMOD 0xDC 0xCC 0xCA MSTORE TLOAD OR LOG4 DUP15 PUSH5 0x736F6C6343 STOP ADDMOD SHL STOP CALLER "
		},
		"gasEstimates": {
			"creation": {
				"codeDepositCost": "608800",
				"executionCost": "infinite",
				"totalCost": "infinite"
			},
			"external": {
				"claimRewards()": "infinite",
				"maxRewardRate()": "2426",
				"minRewardRate()": "2492",
				"rewardBalance(address)": "2824",
				"rewardRate()": "2469",
				"stake(uint256)": "infinite",
				"stakingBalance(address)": "2802",
				"token()": "infinite",
				"withdraw(uint256)": "infinite"
			},
			"internal": {
				"calculateRewards(address)": "infinite",
				"getRandomRewardRate(uint256,uint256)": "infinite"
			}
		},
		"methodIdentifiers": {
			"claimRewards()": "372500ab",
			"maxRewardRate()": "0d40ffc7",
			"minRewardRate()": "3dc78f8d",
			"rewardBalance(address)": "67b40cf7",
			"rewardRate()": "7b0a47ee",
			"stake(uint256)": "a694fc3a",
			"stakingBalance(address)": "45bc78ab",
			"token()": "fc0c546a",
			"withdraw(uint256)": "2e1a7d4d"
		}
	},
	"abi": [
		{
			"inputs": [
				{
					"internalType": "contract IERC20",
					"name": "_token",
					"type": "address"
				}
			],
			"stateMutability": "nonpayable",
			"type": "constructor"
		},
		{
			"inputs": [],
			"name": "claimRewards",
			"outputs": [],
			"stateMutability": "nonpayable",
			"type": "function"
		},
		{
			"inputs": [],
			"name": "maxRewardRate",
			"outputs": [
				{
					"internalType": "uint256",
					"name": "",
					"type": "uint256"
				}
			],
			"stateMutability": "view",
			"type": "function"
		},
		{
			"inputs": [],
			"name": "minRewardRate",
			"outputs": [
				{
					"internalType": "uint256",
					"name": "",
					"type": "uint256"
				}
			],
			"stateMutability": "view",
			"type": "function"
		},
		{
			"inputs": [
				{
					"internalType": "address",
					"name": "",
					"type": "address"
				}
			],
			"name": "rewardBalance",
			"outputs": [
				{
					"internalType": "uint256",
					"name": "",
					"type": "uint256"
				}
			],
			"stateMutability": "view",
			"type": "function"
		},
		{
			"inputs": [],
			"name": "rewardRate",
			"outputs": [
				{
					"internalType": "uint256",
					"name": "",
					"type": "uint256"
				}
			],
			"stateMutability": "view",
			"type": "function"
		},
		{
			"inputs": [
				{
					"internalType": "uint256",
					"name": "_amount",
					"type": "uint256"
				}
			],
			"name": "stake",
			"outputs": [],
			"stateMutability": "nonpayable",
			"type": "function"
		},
		{
			"inputs": [
				{
					"internalType": "address",
					"name": "",
					"type": "address"
				}
			],
			"name": "stakingBalance",
			"outputs": [
				{
					"internalType": "uint256",
					"name": "",
					"type": "uint256"
				}
			],
			"stateMutability": "view",
			"type": "function"
		},
		{
			"inputs": [],
			"name": "token",
			"outputs": [
				{
					"internalType": "contract IERC20",
					"name": "",
					"type": "address"
				}
			],
			"stateMutability": "view",
			"type": "function"
		},
		{
			"inputs": [
				{
					"internalType": "uint256",
					"name": "_amount",
					"type": "uint256"
				}
			],
			"name": "withdraw",
			"outputs": [],
			"stateMutability": "nonpayable",
			"type": "function"
		}
	]
}